:020000040800F2
:10000000000008241D2E0008152C00081B2C0008D9
:10001000212C0008272C00082D2C000800000000CF
:1000200000000000000000000000000071940008C3
:10003000332C000800000000C19600084987000822
:100040006D2E00086D2E00086D2E00086D2E000824
:100050006D2E00086D2E00086D2E00086D2E000814
:100060006D2E00086D2E00086D2E00086D2E000804
:100070006D2E00086D2E00086D2E00086D2E0008F4
:100080006D2E00086D2E00086D2E00086D2E0008E4
:100090006D2E00086D2E00086D2E00086D2E0008D4
:1000A0006D2E00086D2E00086D2E00086D2E0008C4
:1000B0006D2E00086D2E00086D2E00086D2E0008B4
:1000C0006D2E00086D2E00086D2E00086D2E0008A4
:1000D0006D2E00086D2E00086D2E00086D2E000894
:1000E0006D2E00086D2E0008000000006D2E000827
:1000F0006D2E00086D2E00086D2E00086D2E000874
:100100006D2E00086D2E00086D2E00086D2E000863
:100110006D2E00086D2E0008412C00086D2E000881
:100120006D2E00086D2E00086D2E00086D2E000843
:100130006D2E00086D2E00086D2E00086D2E000833
:100140006D2E00086D2E0008000000000000000069
:100150006D2E00086D2E00086D2E00086D2E000813
:100160006D2E00086D2E00086D2E00086D2E000803
:100170006D2E00086D2E00086D2E00080000000096
:100180006D2E00086D2E00086D2E00086D2E0008E3
:100190006D2E00086D2E00086D2E00086D2E0008D3
:1001A000552C00086D2E0008692C00086D2E0008E3
:1001B0007D2C00086D2E00086D2E00086D2E0008A5
:1001C0006D2E00086D2E00086D2E00086D2E0008A3
:1001D0006D2E00086D2E00086D2E00086D2E000893
:1001E0006D2E00086D2E00086D2E00086D2E000883
:1001F0006D2E00086D2E00086D2E00086D2E000873
:100200006D2E00086D2E00086D2E00086D2E000862
:100210006D2E00086D2E00086D2E00086D2E000852
:100220006D2E00086D2E00086D2E000800000000E5
:100230006D2E00086D2E00086D2E00086D2E000832
:100240006D2E00086D2E00086D2E00086D2E000822
:100250006D2E00086D2E00086D2E00086D2E000812
:100260006D2E00086D2E00086D2E00086D2E000802
:100270006D2E00086D2E00086D2E00086D2E0008F2
:100280006D2E00086D2E00086D2E00080000000085
:080290006D2E00086D2E000820
:1002A00010B5054C237833B9044B13B10448AFF3B0
:1002B00000800123237010BD4801002400000000CD
:1002C000E4AD020808B5034B1BB103490348AFF383
:1002D000008008BD000000004C010024E4AD0208CD
:1002E000034613F8012B002AFBD1181A0138704776
:1002F00001F0FF01102A2BDB10F0070F08D010F8D7
:10030000013B013A8B422DD010F0070F42B3F6D1DA
:10031000F0B441EA012141EA014122F007047FF0F3
:1003200000070023F0E80256083C85EA010586EA4A
:10033000010685FA47F5A3FA87F586FA47F6A5FA86
:1003400087F68EB9EED1F0BC01F0FF0102F0070292
:1003500032B110F8013B013A83EA010313B1F8D13D
:100360000020704701387047002D06BF354603381E
:10037000073815F0010F07D1013015F4807F02BF57
:10038000013015F4C03F0130F0BC0138704700BFA8
:1003900053B94AB9002908BF00281CBF4FF0FF31EC
:1003A0004FF0FF3000F06EB9ADF1080C6DE904CEEE
:1003B00000F006F8DDF804E0DDE9022304B0704740
:1003C0002DE9F047089D04468C46002B40F08380C1
:1003D0008A42174647D9B2FA82F242B1C2F12000EE
:1003E00024FA00F09140974040EA010C94404FEA13
:1003F0001748230CBCFBF8F61FFA87FE08FB16C152
:1004000043EA014306FB0EF1994209D9FB1806F1B4
:10041000FF3080F01981994240F21681023E3B4440
:100420005B1AA4B2B3FBF8F008FB103344EA0344B0
:1004300000FB0EFEA64509D93C1900F1FF3380F000
:100440000581A64540F2028102383C4440EA06405C
:10045000A4EB0E0400261DB1D4400023C5E90043DF
:100460003146BDE8F08702B9FFDEB2FA82F2002A17
:1004700050D1CB1B4FEA174E1FFA87F80126B3FB6A
:10048000FEFC210C0EFB1C3341EA034108FB0CF37C
:100490008B4207D979180CF1FF3002D28B4200F25F
:1004A000E9808446C91AA3B2B1FBFEF00EFB10111D
:1004B00043EA014408FB00F8A04507D93C1900F1C4
:1004C000FF3302D2A04500F2D9801846A4EB0804FD
:1004D00040EA0C40BFE78B4209D9002D00F0B18003
:1004E0000026C5E9000130463146BDE8F087B3FA81
:1004F00083F6002E4AD18B4202D3824200F2B880AA
:10050000841A61EB030101208C46002DA8D0C5E9B7
:10051000004CA5E7C2F1200320FA03F6974001FA48
:1005200002F04FEA174ED9403043030CB1FBFEF600
:100530001FFA87F80EFB161143EA014306FB08F188
:10054000994204FA02F409D9FB1806F1FF3C80F045
:100550008D80994240F28A80023E3B445B1A81B210
:10056000B3FBFEF00EFB103341EA034100FB08F33E
:100570008B4207D9791800F1FF3C73D28B4271D9B5
:1005800002383944CB1A40EA064678E7C6F1200C17
:1005900003FA06F422FA0CF31C4320FA0CF701FAD2
:1005A00006F34FEA144E21FA0CF11F433B0CB1FB4A
:1005B000FEF91FFA84F80EFB191143EA014109FB09
:1005C00008FA8A4502FA06F200FA06F308D9611819
:1005D00009F1FF3048D28A4546D9A9F102092144E0
:1005E000A1EB0A01BFB2B1FBFEF00EFB101147EA0E
:1005F000014700FB08F8B84507D9E71900F1FF31BA
:100600002ED2B8452CD90238274440EA0940A7EB3E
:100610000807A0FB02894F45C64649461AD317D0A2
:100620005DB1B3EB0E0267EB010707FA0CFCF24079
:100630004CEA0202F740C5E9002700263146BDE832
:10064000F0872E4628460BE70646E9E61846FDE603
:100650004345E5D2B8EB020E69EB04010138DFE750
:100660000846D2E760468DE78146B9E7664675E7FA
:1006700030464AE7ACF1020C394413E702383C44F7
:1006800024E700BF704700BF90B587B000AF786027
:100690000023FB8200233B619F4B1B6800221A75DD
:1006A0009D4B1B6800225A759B4B1B680022DA8207
:1006B000994B1B6800229A62974B1B680022DA62F2
:1006C000954B1B6800221A63934B1B6800225A63E8
:1006D00000F026F90346914A934202D04FF0FF33CF
:1006E00015E17B6803F00203002B01D100F06EFDE1
:1006F0007B6803F00203002B04D07B6803F0F8034F
:10070000002B02D1002000F06DFC042200212420E7
:1007100000F0B1FB7B6803F00203002B16D104202C
:1007200000F0FFFB38613B69DBB2002B1FD00222D7
:1007300012212D2000F09FFB774B1B68DA8A764B45
:100740001B6842F4805292B2DA8210E030212820F5
:1007500000F04DFB0346B3F1883F08D06E4B1B6899
:10076000DA8A6D4B1B6842F4805292B2DA827B685F
:1007700003F00203002B09D07B6803F00203002B77
:1007800011D07B6803F00803002B0CD01E2000F072
:10079000C8FB0346FB82FB8A1B0A9AB25E4B1B68AE
:1007A000D2B2DA7203E05C4B1B680022DA727B681B
:1007B00003F00203002B0BD1FB8A03F01F03002B75
:1007C00001D11023FB82FB8ADBB2184600F024FD26
:1007D0007B6803F01003002B07D04F4B1C680620EA
:1007E00000F09FFB0346236003E04B4B1B68002295
:1007F0001A607B6803F02003002B07D0464B1C686F
:10080000072000F08EFB0346636003E0424B1B6849
:1008100000225A607B6803F04003002B08D00820B8
:1008200000F07FFB02463C4B1B68D2B21A7203E019
:10083000394B1B6800221A727B6803F08003002B7F
:1008400008D0092000F06DFB0246334B1B68D2B282
:100850005A7203E0304B1B6800225A727B6803F027
:100860000203002B21D17B6803F00103002B0BD086
:1008700000F0A4FB284B1B68DA8A274B1B6842F464
:10088000006292B2DA821EE00521362000F0D6FA2C
:100890000346FB81FB8923F40073FB81FB891A4625
:1008A0000521362000F0FAFA0DE07B6803F004031E
:1008B000002B08D1184B1B68DA8A174B1B6842F4CF
:1008C000006292B2DA82012000F08CFB00220A2141
:1008D0002C2000F0D0FA104B1C680021042000F0FE
:1008E00086FA034623610C4B1B681B691B0CDAB2AA
:1008F000094B1B6802F00302D2B29A72064B1C68C5
:100900000021082000F073FA0346E3600023184634
:100910001C37BD4690BD00BF040000243001CADE74
:1009200080B500AF0021002000F061FA03461846B0
:1009300080BD000080B586B000AF78600023FB75F5
:100940000023BB757B681B78FB747B685B791A4658
:10095000A14B33F81230BB827B685B78013BBB74E0
:10096000FB7C042B02D0FB7C072B01D1012300E090
:1009700000237B747B68DB79002B0BD1974B1B68C2
:100980001A69964B1B6842F480021A61BB8ADB0825
:10099000BB8207E0914B1B681A69904B1B6822F4DD
:1009A00080021A618D4B1B687A68127A9A728B4B9F
:1009B0001B681A69894B1B6822F440321A61874B05
:1009C0001B6819697B681B7A1B0403F44032834B54
:1009D0001B680A431A61814B1B681B691A46002178
:1009E000042000F077FABB8A1A4642F604012E2052
:1009F00000F054FABB7C184600F0C0FAFB7C784A41
:100A0000D35C1A46774B53F822301A4607212B2025
:100A100000F060FAFB7C724AD35C1A46724B9B5C16
:100A20001A460B212B2000F026FA7B7C6F4AD35C00
:100A30001A460B21282000F01EFAFB7C684AD35C82
:100A40001A466B4B53F822301A460C21282000F02E
:100A500041FA7B68DB7918467B689B791946654AC1
:100A600043000B4432F813301A460221272000F0CD
:100A700015FABB7C604A32F813301A46042127204D
:100A800000F00CFA7B68DB79002B05D1642206218B
:100A9000272000F003FA18E07B689B78042B0AD12A
:100AA00010220621272000F0F9F910222621272004
:100AB00000F0E1F909E020220621272000F0EEF9FC
:100AC00028222621272000F0D6F9BB7C7A68D2782C
:100AD00011464A4A9B000B4452F823301A4608211B
:100AE000272000F0F7F97B685B89002B03D17B6836
:100AF00041F241025A817B685B891A4620212720F6
:100B000000F0CCF93E4B1B681A460C21232000F064
:100B1000E1F9BB7C3A4A5B0013449B881A460421E6
:100B2000232000F0BBF97B689B79002B0DD07B68FC
:100B3000DB791A46334B9B5C1A460021212000F0DA
:100B40009AF90323FB750123BB75FB7C03F00F02AD
:100B5000FB7C1B01DBB21A437B685B789B0403F4CC
:100B600040231A43FB7D1B0503F440131A43BB7D4E
:100B70005B0403F400331A437B681B799B0503F085
:100B8000F8631A437B685B79DB061343FB60FA6802
:100B900000211F2000F09EF97B689A787B685B78C3
:100BA0001343DBB219047B68DB795A030B4B1B68D8
:100BB0000A43DA60094B1B68DB681A4600210820EB
:100BC00000F088F9422200210D2000F054F900BF06
:100BD0001837BD4680BD00BF0CB9020804000024D0
:100BE0008CB80208ACB80208C4B80208CCB8020835
:100BF00094B80208DCB80208E8B80208ECB80208A9
:100C0000D0B80208D8B8020880B582B000AF034659
:100C10003960FB801346BB80BA88FB881344B3F568
:100C2000806F09DCFB88023B1A46B9883B680920C3
:100C300000F028F8002301E04FF0FF331846083792
:100C4000BD4680BD80B584B000AF03463A60FB80EE
:100C50000B46BB800A4B1B68DA68FB881A43BB88CB
:100C60009B051A433B68DB031343FB60FA680021D2
:100C7000082000F02FF900BF1037BD4680BD00BF2F
:100C80000400002480B586B000AFBA607B600346E4
:100C9000FB810B46BB8100237B61BB89002B0DD1FF
:100CA000FB89DAB27B69591C796162F07F02D2B2AA
:100CB00007F118010B4403F8082C33E0FB89DAB282
:100CC0007B69591C796162F03F02D2B207F11801C9
:100CD0000B4403F8082CBB897F2B0AD87B695A1C6C
:100CE0007A61BA89D2B207F118010B4403F8082CD3
:100CF00018E0BB89DAB27B69591C796162F07F0226
:100D0000D2B207F118010B4403F8082CBB89DB09A8
:100D100099B27B695A1C7A61CAB207F118010B4477
:100D200003F8082C7B6998B207F110017B68BA6858
:100D300000F0B4FA00BF1837BD4680BD80B586B05C
:100D400000AFBA607B600346FB810B46BB8100238A
:100D50007B61BB89002B0AD17B695A1C7A61FA89B5
:100D6000D2B207F118010B4403F8082C33E0FB89D9
:100D7000DAB27B69591C796142F04002D2B207F1C4
:100D800018010B4403F8082CBB897F2B0AD87B6918
:100D90005A1C7A61BA89D2B207F118010B4403F8E0
:100DA000082C18E0BB89DAB27B69591C796162F0C2
:100DB0007F02D2B207F118010B4403F8082CBB895B
:100DC000DB0999B27B695A1C7A61CAB207F1180132
:100DD0000B4403F8082C7B6998B207F110017B687B
:100DE000BA6800F08FFA00BF1837BD4680BD80B5E5
:100DF00086B000AF7860396000237B617B6898B271
:100E00003B6899B207F10C030422FFF797FF032315
:100E10003B610BE07B691B0207F10C013A690A4454
:100E2000127813447B613B69013B3B613B69002BBA
:100E3000F0DA7B6918461837BD4680BD80B584B0AE
:100E400000AF786039600023FB817B6898B23B6813
:100E500099B207F10C030222FFF770FF7B7B9BB274
:100E60001B029AB23B7B9BB21344FB81FB89184661
:100E70001037BD4680BD80B584B000AFF860B96062
:100E80001346FB71FB6898B2BB6899B2FB1D012247
:100E9000FFF7F8FE00BF1037BD4680BD80B586B0B5
:100EA00000AFF860B9601346FB80FB88DBB23B758E
:100EB000FB881B0A9BB2DBB27B75FB6898B2BB68F0
:100EC00099B207F114030222FFF7DCFE00BF1837C6
:100ED000BD4680BD80B586B000AFF860B9607A606D
:100EE00000237B610DE07B68D9B207F110027B69BA
:100EF00013440A461A707B681B0A7B607B690133C6
:100F00007B617B69032BEEDDFB6898B2BB6899B20D
:100F100007F110030422FFF7B5FE00BF1837BD46E6
:100F200080BD80B584B000AF0346FB80FB881A46C5
:100F300004212D20FFF7B2FF032206212D20FFF709
:100F40009AFF002206212D20FFF795FF0A212D2070
:100F5000FFF74DFFF860FB6818461037BD4680BDAF
:100F600080B500AF002202212C20FFF784FF02226F
:100F700002212C20FFF77FFF00BF80BD80B582B02B
:100F800000AF78606D2240F606012E20FFF773FF58
:100F90007B68002B07D040F2076241F606012E2045
:100FA000FFF77CFF06E041F2076241F606012E20C2
:100FB000FFF774FF00BF0837BD4680BD80B500AFA6
:100FC0000E2000F00FF84FF4004206212D20FFF70D
:100FD00065FF012000F056F9012000F003F800BF82
:100FE00080BD000080B584B000AF786007F10C03CD
:100FF000022200213620FFF7A1FE7B680E2B76D857
:1010000001A252F823F000BF551000084510000857
:101010006B100008EF100008EF100008EF10000838
:10102000EF10000881100008A1100008EF10000860
:10103000EF100008B7100008C3100008CF10000818
:10104000E510000800233B737B7B23F00103DBB238
:101050007B734DE03B7B5BB223F003035BB243F059
:1010600001035BB2DBB23B7342E03B7B5BB223F03C
:1010700003035BB243F002035BB2DBB23B7337E0C6
:101080003B7B5BB223F04C035BB243F048035BB2A3
:10109000DBB23B737B7B63F07F03DBB27B7327E0C8
:1010A0003B7B23F04C03DBB23B737B7B03F07F0382
:1010B000DBB27B731CE07B7B43F00203DBB27B7310
:1010C00016E07B7B23F00203DBB27B7310E03B7BFB
:1010D0005BB223F030035BB243F020035BB2DBB2C0
:1010E0003B7305E001233B7303237B7300E000BFE8
:1010F00007F10C03012200213620FFF7C3FD07F1A1
:101100000C030133012201213620FFF7BBFD00BF94
:101110001037BD4680BD00BF80B500AF0020FFF78F
:1011200061FF002204213620FFF7B8FE00BF80BD1A
:1011300080B584B000AF0346FB710023FB60002341
:10114000FB7200233B81FB7903F00203002B05D0E7
:101150008023FB721C4B1B6801225A75FB7903F03C
:101160000103002B20D0FB7A43F00603FB72FB7ACD
:101170001A4600210D20FFF77EFE03210F20FFF706
:101180005DFE03463B813B8903F48163002B02D162
:101190000023FB6012E0402200210D20FFF76BFED0
:1011A0004FF0FF33FB6009E0FB7A43F00203FB7270
:1011B000FB7A1A4600210D20FFF75DFEFB681846FA
:1011C0001037BD4680BD00BF0400002480B500AFCD
:1011D000FFF7A2FF002200212C20FFF75FFE002274
:1011E00006212C20FFF747FEFFF7BAFE002203215D
:1011F0003620FFF740FE012000F044F8F0220321E2
:101200003620FFF738FE034B1B6800225A7500BFDB
:1012100080BD00BF0400002480B584B000AF034649
:10122000FB7197F9073003F01F035BB243F06003D3
:101230005BB2FB73FB7B1A460E212B20FFF71BFED4
:1012400000BF1037BD4680BD80B582B000AF00F052
:10125000BBF903467B607B68002B01D000F0A6F948
:101260007B6818460837BD4680BD80B582B000AFA8
:1012700078607B68002B01D000F09FF900BF083731
:10128000BD4680BD80B582B000AF7860786800F060
:10129000E7F800BF0837BD4680BD00002DE9704F5C
:1012A00083468A4690469946144DFFF7CDFF064681
:1012B000284614F0B9F801280446F9D1002210217B
:1012C0000F480EF085F95A4651464FF0FF330B4850
:1012D00013F0DAF94FF0FF3349461FFA88F2074856
:1012E00013F0D2F92246102105480EF071F930466C
:1012F000FFF7BBFF0020BDE8708F00BFE4B1002402
:10130000000402582DE9784781460C4690461D4658
:10131000DFF870A0FFF798FF0646504614F084F8F7
:101320000128FAD10022102115480EF051F9B9F127
:10133000000F0CD0DFF84CA0A144214601344FF03F
:10134000FF330122504613F09FF94C45F5D11FFAA7
:1013500088F8DFF830904FF0FF3342462946484680
:1013600013F084FB04460028F5D101221021044823
:101370000EF02EF93046FFF778FF2046BDE878875B
:1013800000040258E4B1002480B483B000AF0346E7
:10139000FB80B7F90630002B0BDBFB8803F01F0244
:1013A0000749B7F906305B09012000FA02F241F85B
:1013B000232000BF0C37BD465DF8047B704700BF9B
:1013C00000E100E080B483B000AF0346FB80B7F9D2
:1013D0000630002B12DBFB8803F01F020A49B7F925
:1013E00006305B09012000FA02F2203341F8232085
:1013F000BFF34F8F00BFBFF36F8F00BF00BF0C372D
:10140000BD465DF8047B704700E100E080B485B024
:1014100000AF78600023FB6012E00023BB6004E0B3
:1014200000BF00BFBB680133BB60BB68012BD4BFEA
:1014300001230023DBB2002BF2D1FB680133FB60F8
:10144000FB687A689A428CBF01230023DBB2002B31
:10145000E3D100BF00BF1437BD465DF8047B704781
:1014600080B582B000AF786078680DF0DBF900BF1E
:101470000837BD4680BD000080B483B000AF7860FF
:101480000B4A7B685B0952F823207B6803F01F033B
:1014900022FA03F303F00103002B14BF01230023FE
:1014A000DBB218460C37BD465DF8047B704700BFC1
:1014B00000E100E080B586B000AF4FF480737B6040
:1014C0001123BB6000233B613B1D19460A480DF008
:1014D000C5FD00224FF4807107480EF079F8012015
:1014E000FFF794FF002000F009F80220FFF7B8FF93
:1014F00000BF1837BD4680BD0020025880B588B0B7
:1015000000AF78607B68002B16D04FF48073FB60CF
:101510004FF488133B6100237B6107F10C031946EC
:1015200013480DF09BFD06200DF0A2FA00220521C4
:1015300006200DF083FA17E006200DF0A7FA4FF40D
:101540008073FB6011233B6100237B610223BB613D
:1015500007F10C03194606480DF080FD01224FF4F7
:10156000807103480EF034F800BF2037BD4680BDBF
:101570000020025880B500AF044B4FF0C042DA6142
:10158000024812F07BFF00BF80BD00BFE4B1002421
:1015900080B500AF044B4FF04052DA61024812F0C0
:1015A0006DFF00BF80BD00BFE4B1002480B500AF77
:1015B0001720FFF707FF00BF80BD80B500AF1720E1
:1015C000FFF7E2FE00BF80BD80B500AF1720FFF738
:1015D00053FF0346184680BD80B483B000AF7860E7
:1015E000044A7B68136000BF0C37BD465DF8047B7E
:1015F000704700BF9C01002480B584B000AF7860C4
:101600007868FEF76DFE0346FB81094B1868FA897E
:101610004FF0FF33796814F027FB0346002B01D10C
:10162000FB8901E04FF0FF3318461037BD4680BDFF
:101630009C01002480B586B000AF00F0A5FC694B8A
:101640005B6903F40033002B1BD1BFF34F8F00BF46
:10165000BFF36F8F00BF634B0022C3F85022BFF36C
:101660004F8F00BFBFF36F8F00BF5E4B5B695D4A5A
:1016700043F400335361BFF34F8F00BFBFF36F8F4D
:1016800000E000BF574B5B6903F48033002B38D177
:10169000544B0022C3F88420BFF34F8F00BF514B3F
:1016A000D3F880303B613B695B0BC3F30E03FB60F7
:1016B0003B69DB08C3F30903BB60FB685A0143F6CF
:1016C000E0731340BA68920746491343C1F8603289
:1016D000BB685A1EBA60002BEFD1FB685A1EFA6035
:1016E000002BE5D1BFF34F8F00BF3E4B5B693D4AF6
:1016F00043F480335361BFF34F8F00BFBFF36F8F4D
:1017000000E000BF4FF6FF737B6100BF364B1B68E4
:1017100003F40043002B04D07B695A1E7A61002B2E
:10172000F4DC7B69002B01DA00F078FC0DF01EF888
:1017300000F06AF82C4BD3F8E0302B4A43F00073EA
:10174000C2F8E030284BD3F8E03003F000737B6040
:101750007B6800200DF056FF002100200DF06CFF8B
:101760004FF6FF737B6100BF1F4B1B6803F4004300
:10177000002B04D17B695A1E7A61002BF4DC7B6953
:10178000002B01DA00F04AFC00F0B6FA00F08EF906
:1017900000F05CFA00F006F900F0C4F800F0E4F89C
:1017A00000F008FA00F0B0F901F061FB0020FFF74B
:1017B000A5FE0E48FFF710FF06F0E0FF0C4A0021DF
:1017C0000C4807F025F803460B4A13600B4A00212A
:1017D0000B4807F01DF803460A4A136006F0F2FFB3
:1017E000FEE700BF00ED00E0004402586CB20024A8
:1017F00040B90208751F0008E0B1002464B902086E
:101800007B2E0008FCB3002480B59CB000AF07F12C
:1018100024034C220021184628F0F6FA3B1D202212
:101820000021184628F0F0FA04200FF06FFA002388
:101830003B60394BDB6A384A23F00103D362364BF5
:10184000DB6A03F001033B60344B9B69334A43F48A
:1018500040439361314B9B6903F440433B603B68D9
:1018600000BF2E4B9B6903F40053B3F5005FF8D122
:101870002B4B9B6A23F00303294A43F00203936234
:1018800003237B624FF48033BB6201233B6340231D
:101890007B630223BB640223FB6405233B65A02317
:1018A0007B650223BB650423FB6502233B6608239B
:1018B0007B660023BB660023FB6607F12403184602
:1018C00010F060F90346002B01D000F0A7FB3F2386
:1018D0007B600323BB600023FB6008233B61402344
:1018E0007B614023BB614FF48063FB6140233B621B
:1018F0003B1D0221184610F071FD0346002B01D05C
:1019000000F08CFB4FF480220021002010F01CFF1F
:1019100000BF7037BD4680BD000400580048025823
:101920000044025880B500AF0D4B0E4A1A600C4BB4
:1019300000221A710A4B00225A71094B00225A6187
:10194000074B00229A61064B01221A6204480DF0EF
:1019500027F90346002B01D000F060FB00BF80BDDB
:10196000FCB20024004C025880B500AF0B4B0C4A6F
:101970001A600A4B4FF440325A60084B02229A60B8
:10198000064B0022DA6005480DF0F4F90346002BFF
:1019900001D000F043FB00BF80BD00BF00B40024B5
:1019A0000010005280B58EB000AF00F099FB3B1DD7
:1019B00034220021184628F027FA3A4B3A4A1A6096
:1019C000384B00225A60374B00229A60354B002278
:1019D000DA60344B00221A61324B28225A61314BB3
:1019E00009229A612F4B3522DA612E4B0B221A62A3
:1019F0002C4B40F215225A622A4B40F21B129A627B
:101A0000284B40F23522DA62264B40F21D121A634F
:101A1000244B002283F83420224B002283F8352007
:101A2000204B002283F836201E480EF073FC03463C
:101A3000002B01D000F0F2FA00237B604FF4F0732A
:101A4000BB600023FB604FF488733B6102237B6122
:101A5000FF23BB610023FB614FF480633B620523DE
:101A60007B624FF05043BB624FF4F073FB624FF464
:101A700088733B63002387F83430002387F83530C0
:101A8000002387F836303B1D0022194605480EF02A
:101A9000C9FD0346002B01D000F0C0FA00BF383763
:101AA000BD4680BD20B300240010005080B500AFBB
:101AB000124B134A1A60114B01225A600F4B01223C
:101AC0009A600E4B1022DA600C4B1A221A610B4BF3
:101AD0004FF400725A61094B00229A61074B402271
:101AE0001A6206480FF06CF90346002B01D000F093
:101AF00095FA044800F068FB00BF80BD2CB50024B7
:101B0000005000521D20000880B500AF274B284A26
:101B10001A60264B4FF480025A60244B00229A60D0
:101B2000224B0722DA60214B00221A611F4B002250
:101B30005A611E4B4FF080629A611C4B4FF0C042BD
:101B4000DA611A4B00221A62184B00225A62174BB4
:101B500000229A62154B0022DA62144B4FF0804249
:101B60005A63124B00229A63104B0022DA630F4B28
:101B700000221A640D4B00225A640C4B00229A6416
:101B80000A4B0022DA64094B00221A65074B002237
:101B90005A65064B00229A65044812F06FFC034612
:101BA000002B01D000F03AFA00BF80BDE4B1002460
:101BB0000038004080B500AF224B234A1A60214B09
:101BC0004FF4E1325A601F4B00229A601D4B0022F5
:101BD000DA601C4B00221A611A4B0C225A61194B15
:101BE00000229A61174B0022DA61164B00221A621A
:101BF000144B00225A62134B00229A62114813F0D0
:101C0000E3FF0346002B01D000F008FA00210D4845
:101C100015F00EF80346002B01D000F0FFF900216B
:101C2000084815F043F80346002B01D000F0F6F900
:101C3000044814F0C4FF0346002B01D000F0EEF975
:101C400000BF80BD6CB200240048004080B588B061
:101C500000AF3B1D00221A605A609A60DA601A6178
:101C60005A619A61214B224A1A60204B01225A6024
:101C70001E4B00229A601D4B0422DA601B4B10227F
:101C80001A611A4B40225A61184B4FF480729A61C4
:101C9000164B0022DA61154B4FF400621A62134BA7
:101CA0004FF480525A62114B00229A6202237B60E9
:101CB0000623BB600423FB6006233B6102237B6198
:101CC0000223BB610223FB613B1D1946074812F04A
:101CD0001FFB0346002B01D000F0A0F9054800F0DF
:101CE00094FA00BF2037BD4680BD00BFC8B30024B2
:101CF000404100521D20000880B590B000AF07F1B0
:101D00002C0300221A605A609A60DA601A61924BC2
:101D1000D3F8E030904A43F48063C2F8E0308E4B51
:101D2000D3F8E03003F48063BB62BB6A8A4BD3F81C
:101D3000E030894A43F04003C2F8E030864BD3F8E4
:101D4000E03003F040037B627B6A834BD3F8E030E2
:101D5000814A43F48073C2F8E0307F4BD3F8E0301F
:101D600003F480733B623B6A7B4BD3F8E0307A4AE2
:101D700043F01003C2F8E030774BD3F8E03003F0C3
:101D80001003FB61FB69744BD3F8E030724A43F0F7
:101D90000203C2F8E030704BD3F8E03003F00203E6
:101DA000BB61BB696C4BD3F8E0306B4A43F4007302
:101DB000C2F8E030684BD3F8E03003F400737B6185
:101DC0007B69654BD3F8E030634A43F00803C2F8FF
:101DD000E030614BD3F8E03003F008033B613B692E
:101DE0005D4BD3F8E0305C4A43F00403C2F8E030C6
:101DF000594BD3F8E03003F00403FB60FB68564B0B
:101E0000D3F8E030544A43F00103C2F8E030524BBB
:101E1000D3F8E03003F00103BB60BB684E4BD3F84E
:101E2000E0304D4A43F02003C2F8E0304A4BD3F88B
:101E3000E03003F020037B607B68474BD3F8E03051
:101E4000454A43F08003C2F8E030434BD3F8E0301A
:101E500003F080033B603B68012210213F480DF0F6
:101E6000B7FB00224FF480713D480DF0B1FB012219
:101E70004FF400513A480DF0ABFB012204213948E0
:101E80000DF0A6FB1023FB6201233B6300237B6361
:101E90000323BB6307F12C03194630480DF0DEF82D
:101EA0000823FB624FF488133B6302237B6307F133
:101EB0002C0319462C480DF0D1F84FF40053FB6267
:101EC00000233B6302237B6307F12C031946274859
:101ED0000DF0C4F84FF48073FB6201233B630023D1
:101EE0007B630023BB6307F12C0319461C480DF0EC
:101EF000B5F84FF48073FB6202233B6300237B63DE
:101F00000023BB630023FB6307F12C031946184829
:101F10000DF0A4F84FF40053FB6201233B63002350
:101F20007B630123BB6307F12C0319460C480DF0BA
:101F300095F80423FB6201233B6300237B630123A9
:101F4000BB6307F12C03194606480DF087F800BF64
:101F50004037BD4680BD00BF00440258000402580F
:101F600000200258002402580010025800080258AD
:101F70000000025880B582B000AF786000F054F8DD
:101F8000012006F0D7FCFBE780B584B000AF3B46EC
:101F900000221A605A609A60DA600CF085FD012315
:101FA0003B7000237B704FF050437B6013233B72E8
:101FB00000237B720023BB720323FB7201233B735C
:101FC00000237B730123BB730123FB733B4618463D
:101FD0000CF0A2FD01237B704FF010437B601A23AD
:101FE0003B723B4618460CF097FD04200CF074FD44
:101FF00000BF1037BD4680BD80B582B000AF7860AD
:102000007B681B68044A934201D10CF0EBFB00BFD4
:102010000837BD4680BD00BF0010004080B400AF4F
:1020200072B600BFFEE7000080B500AF2448FFF79E
:10203000E3FA2448FFF7E0FAFFF73CFAFFF79AFAD1
:102040000020FEF721FB0346B3F1FF3F03D11E48FA
:10205000FFF7D2FAFEE7FFF79BFA1C48FEF76AFC8F
:1020600000221B490C20FEF7CFFD002200210C208E
:10207000FEF7E8FD1748FFF7BFFA0020FFF758F812
:102080001548FFF7B9FA00BF00210F20FEF7AFFE99
:10209000034603F08003002BF6D01048FFF7ACFA9C
:1020A000802200210F20FEF715FF4FF47A70FFF712
:1020B000D7F9074B5B780133DAB2054B5A70CFE79B
:1020C00018AE020828AE02082CAE02080800002450
:1020D0001400002438AE020848AE020854AE0208CC
:1020E00080B58CB000AF364BD3F8E430344A43F0BF
:1020F0000803C2F8E430324BD3F8E43003F00803AD
:10210000BB61BB692E4BD3F8E0302D4A43F480739A
:10211000C2F8E0302A4BD3F8E03003F480737B61DF
:102120007B69274BD3F8E030254A43F40073C2F8AB
:10213000E030234BD3F8E03003F400733B613B699C
:102140001F4BD3F8E0301E4A43F48063C2F8E030FE
:102150001B4BD3F8E03003F48063FB60FB68184B43
:10216000D3F8E030164A43F08003C2F8E030144B55
:10217000D3F8E03003F08003BB60BB68104BD3F8AA
:10218000E0300F4A43F00803C2F8E0300C4BD3F8BC
:10219000E03003F008037B607B688023FB61012350
:1021A0003B6207F11C03194606480CF057FF012259
:1021B000802104480DF00CFA00BF3037BD4680BDC9
:1021C00000440258000C025880B584B000AF78601B
:1021D00003233B7301237B734023BB7307F10C0381
:1021E000194600200BF07CFA0346002B01D07B68D7
:1021F000984700200BF04EFB0346002B01D07B6874
:10220000984700BF1037BD4680BD80B582B000AF93
:10221000786000200BF0ACFE00200BF04DFE034672
:10222000002B01D07B68984700BF0837BD4680BDB2
:1022300080B582B000AF0C4BD3F8F4300A4A43F0BB
:102240000203C2F8F430084BD3F8F43003F0020371
:102250007B607B6800220F216FF001000CF0EEFB29
:1022600000BF0837BD4680BD0044025880B485B029
:1022700000AF78607B681B680B4A93420ED10B4B12
:10228000D3F8E030094A43F40023C2F8E030074BAA
:10229000D3F8E03003F40023FB60FB6800BF143781
:1022A000BD465DF8047B7047004C0258004402585C
:1022B00080B584B000AF78607B681B680E4A93429B
:1022C00016D10E4BD3F8D4300C4A43F01003C2F8A9
:1022D000D4300A4BD3F8D43003F01003FB60FB6812
:1022E000002205215A200CF0A9FB5A200CF0C0FB5B
:1022F00000BF1037BD4680BD001000520044025898
:1023000080B5BCB000AF786007F1DC0300221A6032
:102310005A609A60DA601A6107F12003BC2200213A
:10232000184627F071FD7B681B68684A934240F0AD
:10233000C8804FF000533B6205237B64A023BB643D
:102340000223FB6402233B6553237B654FF4006348
:10235000BB650023FB6500233B6607F1200318469D
:1023600010F074FC0346002B01D0FFF757FE584BCA
:10237000D3F8E430564A43F00803C2F8E430544B33
:10238000D3F8E43003F00803FB61FB69504BD3F84A
:10239000E0304F4A43F48063C2F8E0304C4BD3F84E
:1023A000E03003F48063BB61BB69494BD3F8E03094
:1023B000474A43F48073C2F8E030454BD3F8E0302D
:1023C00003F480737B617B69414BD3F8E030404A72
:1023D00043F40073C2F8E0303D4BD3F8E03003F42F
:1023E00000733B613B693A4BD3F8E030384A43F025
:1023F0008003C2F8E030364BD3F8E03003F08003BE
:10240000FB60FB68FC23C7F8DC300223C7F8E03030
:102410000023C7F8E4300223C7F8E8300E23C7F8DA
:10242000EC3007F1DC0319462A480CF017FE4DF298
:102430000323C7F8DC300223C7F8E0300023C7F8D5
:10244000E4300223C7F8E8300E23C7F8EC3007F178
:10245000DC03194620480CF001FE4FF6FB73C7F869
:10246000DC300223C7F8E0300023C7F8E430022351
:10247000C7F8E8300E23C7F8EC3007F1DC03194643
:1024800016480CF0EBFD4FF40073C7F8DC30022364
:10249000C7F8E0300023C7F8E4300223C7F8E8307B
:1024A0000E23C7F8EC3007F1DC0319460C480CF09A
:1024B000D5FD0022052158200CF0C0FA58200CF060
:1024C000D7FA00BFF037BD4680BD00BF00100050F6
:1024D00000440258002802580020025800240258E4
:1024E000001C025880B5BCB000AF786007F1DC0377
:1024F00000221A605A609A60DA601A6107F12003BC
:10250000BC220021184627F07FFC7B681B68764AB6
:10251000934240F0E4804FF000733B620023BB66BF
:1025200007F12003184610F091FB0346002B01D061
:10253000FFF774FD6D4BD3F8D4306C4A43F48043FD
:10254000C2F8D430694BD3F8D43003F48043FB6134
:10255000FB69664BD3F8E030644A43F04003C2F8AD
:10256000E030624BD3F8E03003F04003BB61BB695D
:102570005E4BD3F8E0305D4A43F02003C2F8E03010
:102580005A4BD3F8E03003F020037B617B69574B53
:10259000D3F8E030554A43F08003C2F8E030534BA3
:1025A000D3F8E03003F080033B613B694F4BD3F835
:1025B000E0304E4A43F00803C2F8E0304B4BD3F80A
:1025C000E03003F00803FB60FB684FF48443C7F876
:1025D000DC300223C7F8E0300023C7F8E4300323DF
:1025E000C7F8E8300923C7F8EC3007F1DC031946D7
:1025F0003F480CF033FD4023C7F8DC300223C7F816
:10260000E0300123C7F8E4300323C7F8E8300A2399
:10261000C7F8EC3007F1DC03194635480CF01EFD15
:102620004FF49863C7F8DC300223C7F8E03000238A
:10263000C7F8E4300323C7F8E8300923C7F8EC30C3
:1026400007F1DC0319462B480CF008FD4FF400732A
:10265000C7F8DC300223C7F8E0300023C7F8E430C5
:102660000323C7F8E8300A23C7F8EC3007F1DC038E
:10267000194620480CF0F2FC0C23C7F8DC3002238A
:10268000C7F8E0300023C7F8E4300323C7F8E83088
:102690000923C7F8EC3007F1DC03194616480CF0A3
:1026A000DDFC4FF40063C7F8DC300223C7F8E030EC
:1026B0000023C7F8E4300323C7F8E8300923C7F83C
:1026C000EC3007F1DC0319460C480CF0C7FC002283
:1026D00005215C200CF0B2F95C200CF0C9F900BFB8
:1026E000F037BD4680BD00BF005000520044025884
:1026F0000018025800140258001C0258000C02581E
:1027000080B5BAB000AF786007F1D40300221A6038
:102710005A609A60DA601A6107F11803BC2200213E
:10272000184627F071FB7B681B68494A934240F0CA
:102730008B804FF48053BB6100237B6707F1180344
:10274000184610F083FA0346002B01D0FFF766FC11
:10275000404BD3F8E8303F4A43F48043C2F8E830B6
:102760003C4BD3F8E83003F480437B617B69394B01
:10277000D3F8E030374A43F00803C2F8E030354B75
:10278000D3F8E03003F008033B613B69314BD3F8E9
:10279000E030304A43F48073C2F8E0302D4BD3F878
:1027A000E03003F48073FB60FB682A4BD3F8E03021
:1027B000284A43F00203C2F8E030264BD3F8E03059
:1027C00003F00203BB60BB680823C7F8D4300223C0
:1027D000C7F8D8300023C7F8DC300323C7F8E0304F
:1027E0000523C7F8E43007F1D40319461A480CF062
:1027F00035FC0423C7F8D4300223C7F8D8300023AF
:10280000C7F8DC300323C7F8E0300523C7F8E4300D
:1028100007F1D403194611480CF020FC4FF4004393
:10282000C7F8D4300223C7F8D8300023C7F8DC300B
:102830000323C7F8E0300523C7F8E43007F1D403D9
:10284000194607480CF00AFC00BFE837BD4680BDBA
:102850000038004000440258000C02580020025882
:102860000004025880B5B8B000AF786007F1CC031F
:1028700000221A605A609A60DA601A6107F1100348
:10288000BC220021184627F0BFFA7B681B68254A46
:10289000934242D102233B610023C7F8843007F101
:1028A0001003184610F0D2F90346002B01D0FFF7B1
:1028B000B5FB1D4BD3F8E8301B4A43F48023C2F824
:1028C000E830194BD3F8E83003F48023FB60FB6851
:1028D000154BD3F8E030144A43F00203C2F8E0305D
:1028E000114BD3F8E03003F00203BB60BB684FF438
:1028F0004063C7F8CC300223C7F8D0300023C7F8B4
:10290000D4300323C7F8D8300723C7F8DC3007F1E9
:10291000CC03194605480CF0A1FB00BFE037BD46CB
:1029200080BD00BF00480040004402580004025827
:1029300080B5B6B000AF07F1C40300221A605A6038
:102940009A60DA601A614F4B1B68002B40F096804A
:102950004C4B01221A6007F10803BC2200211846E3
:1029600027F052FA4FF08073BB600023FB6407F13D
:102970000803184610F06AF90346002B01D0FFF750
:102980004DFB414BD3F8D4303F4A43F48053C2F857
:10299000D4303D4BD3F8D43003F480537B607B6854
:1029A0004FF68373C7F8C4300223C7F8C83000233A
:1029B000C7F8CC300323C7F8D0300C23C7F8D43085
:1029C00007F1C403194631480CF048FB48F23313B1
:1029D000C7F8C4300223C7F8C8300023C7F8CC308A
:1029E0000323C7F8D0300C23C7F8D43007F1C40351
:1029F000194627480CF032FB4CF20373C7F8C43079
:102A00000223C7F8C8300023C7F8CC300323C7F827
:102A1000D0300C23C7F8D43007F1C40319461D4841
:102A20000CF01CFB4FF63F03C7F8C4300223C7F875
:102A3000C8300023C7F8CC300323C7F8D0300C23AC
:102A4000C7F8D43007F1C403194613480CF006FB4D
:102A5000E023C7F8C4300223C7F8C8300023C7F802
:102A6000CC300323C7F8D0300C23C7F8D43007F19B
:102A7000C403194609480CF0F1FA00E000BFD8374A
:102A8000BD4680BDA0010024004402580010025839
:102A900000180258000C025800140258001C02587A
:102AA00080B582B000AF7860FFF742FF00BF083703
:102AB000BD4680BD80B500AF144B1B68002B23D1F1
:102AC000124B01221A60124BD3F8D430104A23F46F
:102AD0008053C2F8D4304FF683710E480CF06EFC70
:102AE00048F233110C480CF069FC4CF203710B48AE
:102AF0000CF064FC4FF63F0109480CF05FFCE0214C
:102B000008480CF05BFC00E000BF80BDA40100247D
:102B1000004402580010025800180258000C0258D5
:102B200000140258001C025880B582B000AF7860D3
:102B3000FFF7C0FF00BF0837BD4680BD80B590B02D
:102B400000AF78607B680F2B27D800227968362089
:102B50000BF074FF36200BF08BFF294A7B68136063
:102B6000284BD3F8E830274A43F01003C2F8E83086
:102B7000244BD3F8E83003F01003FB60FB6807F147
:102B8000100207F114031146184610F01DF8BB6A35
:102B9000BB63BB6B002B06D101E001232BE00FF0E0
:102BA000E7FFF86304E00FF0E3FF03465B00FB631D
:102BB000FB6B154AA2FB03239B0C013B7B63134B6E
:102BC000134A1A60114B40F2E732DA600F4A7B6B0E
:102BD00053600E4B00221A610C4B00229A600B4886
:102BE00012F019FD0346002B04D1084812F074FDC1
:102BF000034600E0012318464037BD4680BD00BFB4
:102C0000640000240044025883DE1B4378B500248E
:102C10000010004080B400AFFEE780B400AFFEE7D4
:102C200080B400AFFEE780B400AFFEE780B400AF31
:102C3000FEE780B400AF00BFBD465DF8047B70477F
:102C400080B500AF024812F0BFFD00BF80BD00BFDD
:102C500078B5002480B500AF02480DF02BFC00BF12
:102C600080BD00BF20B3002480B500AF02480CF047
:102C7000E5F800BF80BD00BF00B4002480B500AF00
:102C800002480EF011F900BF80BD00BF2CB5002432
:102C900080B400AF01231846BD465DF8047B704741
:102CA00080B582B000AF7860396027F053F80346F2
:102CB00016221A604FF0FF3318460837BD4680BD14
:102CC00080B582B000AF78604FF0FF317868FFF7D1
:102CD000E7FFFEE780B586B000AFF860B9607A60C4
:102CE00000237B610AE0AFF300800146BB685A1CF9
:102CF000BA60CAB21A707B6901337B617A697B68FA
:102D00009A42F0DB7B6818461837BD4680BD80B517
:102D100086B000AFF860B9607A6000237B6109E09B
:102D2000BB685A1CBA601B781846AFF300807B69F9
:102D300001337B617A697B689A42F1DB7B681846D4
:102D40001837BD4680BD80B483B000AF78604FF0C7
:102D5000FF3318460C37BD465DF8047B704780B4DE
:102D600083B000AF786039603B684FF400525A601E
:102D7000002318460C37BD465DF8047B704780B4CD
:102D800083B000AF7860012318460C37BD465DF86C
:102D9000047B704780B485B000AFF860B9607A609A
:102DA000002318461437BD465DF8047B70470000C9
:102DB00080B586B000AF7860144A154BD31A7B619A
:102DC0007B693B61134B1B68002B02D1114B124AEC
:102DD0001A60104B1A687B6813443A699A4207D20A
:102DE00026F0B8FF03460C221A604FF0FF3309E0CB
:102DF000084B1B68FB60074B1A687B681344054A45
:102E00001360FB6818461837BD4680BD00000824D3
:102E100000100000A8010024A8B60024DFF834D078
:102E200009F06AF80C480D490D4A002302E0D45815
:102E3000C4500433C4188C42F9D30A4A0A4C002304
:102E400001E013600432A242FBD326F09BFFFEF7A1
:102E5000F1FB704700000824000000244801002412
:102E6000C4EC020848010024A4B60024FEE780B5A3
:102E700000AF01F069FC00BF80BD80B582B000AF3B
:102E8000786001F08BFC00BF0837BD4680BD0000B4
:102E900080B483B000AF7860044A7B681A607B68B6
:102EA00018460C37BD465DF8047B7047A8B9020888
:102EB00080B582B000AF78607868FFF7E9FF042141
:102EC000786826F0E6FE7B6818460837BD4680BD68
:102ED00080B582B000AF786000F0A8FA00BF083774
:102EE000BD4680BD80B584B000AFF860B9607A603F
:102EF0007968B86800F0BEFA034618461037BD4638
:102F000080BD000080B582B000AF7860054A7B6864
:102F10001A607B681846FFF7BBFF7B6818460837C6
:102F2000BD4680BD90B9020880B582B000AF786020
:102F30007868FFF7E7FF0421786826F0AAFE7B682F
:102F400018460837BD4680BD80B483B000AF034645
:102F5000FB71FB79032B0CD801A252F823F000BFC0
:102F6000712F0008712F0008712F0008712F0008C1
:102F700000BF00BF0C37BD465DF8047B704700BF43
:102F800080B483B000AF0346FB71FB79032B0CD8F0
:102F900001A252F823F000BFA92F0008A92F0008B2
:102FA000A92F0008A92F000800BF00BF0C37BD469D
:102FB0005DF8047B704700BF80B483B000AF034668
:102FC000FB71FB79032B0CD801A252F823F000BF50
:102FD000E12F0008E12F0008E12F0008E12F000891
:102FE00000BF00BF0C37BD465DF8047B704700BFD3
:102FF00080B483B000AF7860044A7B681A607B6855
:1030000018460C37BD465DF8047B704750CA02086D
:1030100080B582B000AF78607868FFF7E9FF7C2167
:10302000786826F036FE7B6818460837BD4680BDB6
:1030300080B483B000AF78600B46FB707B68FA7891
:1030400083F874207B68012283F8752000BF0C3759
:10305000BD465DF8047B704780B582B000AF7860F4
:103060000B467B8013463B800C4B1B887A889A4228
:1030700004D30B4B1B883A889A4205D2094B0A4A63
:103080009E210A4826F034FE094A7B881380094AAB
:103090003B88138000BF0837BD4680BD38AF002491
:1030A0003AAF00245CAE0208C0AE020804AF0208CA
:1030B0003EAF002440AF002480B582B000AF7860FE
:1030C0007B6893F87730002B09D07B685A687B685F
:1030D0005B681B681B6810469847034600E00023A6
:1030E00018460837BD4680BD80B582B000AF786015
:1030F000786815F069FF7B681B68A4331B687868E3
:10310000984700BF0837BD4680BD80B483B000AF8C
:1031100078603960002318460C37BD465DF8047BA3
:103120007047000080B584B000AFF860B9607A6085
:103130003B60BB68002B06D1114B124A4FF42B7138
:10314000114826F0D5FDFB68BA68DA63FB687A6837
:103150001A64FB683A685A647B68002B14BF012329
:103160000023DAB2094B1A703B68002B14BF01230D
:103170000023DAB2064B1A7000BF1037BD4680BD7F
:1031800058AF020890AF020804AF020842AF002413
:1031900043AF002480B483B000AF786000231846AA
:1031A0000C37BD465DF8047B704780B582B000AF38
:1031B00078600B467B807B689B6B002B04D07B6820
:1031C0009B6B7A881046984700BF0837BD4680BD84
:1031D00080B483B000AF78604FF6FF7318460C37A9
:1031E000BD465DF8047B704780B582B000AF786063
:1031F0007B685A687B685B681B6818331B681046DD
:103200009847034618460837BD4680BD80B485B050
:1032100000AF78607B6893F874207B6893F8343053
:103220009A4211D0144B1B78002B1ED1134B1B88D4
:10323000BB81134B1A88114B1A80114ABB8913802A
:103240000D4B01221A7010E00B4B1B78002B0CD099
:103250000A4B1B88FB810A4B1A88084B1A80084AC4
:10326000FB891380044B00221A7000BF1437BD463F
:103270005DF8047B704700BF3CAF00243AAF0024E8
:1032800038AF002480B582B000AF78607B68184604
:1032900015F04FF800BF0837BD4680BD80B582B03D
:1032A00000AF7860054A7B681A607B681846FFF7B4
:1032B0009FFE7B6818460837BD4680BD10BD0208DA
:1032C00080B582B000AF78607868FFF7E7FF7C21B7
:1032D000786826F0DEFC7B6818460837BD4680BD5E
:1032E00080B582B000AF78607B681846FFF7CAFFF0
:1032F00000BF0837BD4680BD80B582B000AF7860A2
:103300007B68184601F03AFD00BF0837BD4680BD16
:1033100080B582B000AF78607B68184601F0C6FDCA
:10332000034618460837BD4680BD80B582B000AF61
:10333000786039607B683968184601F0C5FD00BFC8
:103340000837BD4680BD80B582B000AF7860396077
:103350007B683968184601F0CDFD00BF0837BD46CF
:1033600080BD80B584B000AFF860B9607A603B6022
:10337000F8683B687A68B96801F014FE034618469D
:103380001037BD4680BD80B582B000AF78607B68E5
:10339000184601F017FD00BF0837BD4680BD80B557
:1033A00082B000AF78607B68184601F01BFD00BF5B
:1033B0000837BD4680BD80B582B000AF78607B68BD
:1033C000184601F01DFD00BF0837BD4680BD80B521
:1033D00082B000AF78607B68184601F01FFD00BF27
:1033E0000837BD4680BD000080B582B000AF786070
:1033F000054A7B681A607B681846FFF74FFF7B68B9
:1034000018460837BD4680BDC0B9020880B582B0F5
:1034100000AF78607868FFF7E7FF7C21786826F0D6
:1034200038FC7B6818460837BD4680BD80B584B03F
:1034300000AF4FF4F0733B604FF488737B60082358
:10344000BB600023FB603B46194600200AF016FFD4
:103450000346002B14BF01230023DBB2002B03D152
:10346000034B01221A7000E000BF1037BD4680BD3B
:10347000AC01002480B582B000AF78603960114B98
:103480001B7883F00103DBB2002B01D0002314E092
:103490000D4900200AF0AEFF0B4B1B68002B01D139
:1034A00000230AE0084B5B681A467B681A60064BEB
:1034B0009B681A463B681A60012318460837BD46C8
:1034C00080BD00BFAC010024B001002480B500AF76
:1034D00000220121012005F048FA03460F4A13603B
:1034E0000E4B1B68002B05D10D4B0E4A28210E48B0
:1034F00026F0FEFB00220421012005F055FB0346C7
:103500000A4A1360094B1B68002B05D1084B054A7A
:103510002C21054826F0ECFB00BF80BDBC01002437
:10352000E0AF02082CB002085CB00208C001002421
:10353000ACB0020880B500AF044B1B684FF0FF3100
:10354000184605F09BFA00BF80BD00BFBC010024F7
:1035500080B500AF034B1B68184605F0E1FA00BFC9
:1035600080BD00BFBC01002480B500AF034B1B68C9
:103570000021184605F082FA00BF80BDBC0100247E
:1035800080B500AF034B1B68184605F0C9FA00BFB1
:1035900080BD00BFBC01002480B500AF044B18689B
:1035A00000230022034905F073FB00BF80BD00BF6C
:1035B000C00100242000002480B582B000AF094B78
:1035C0001868391D0023002205F0C2FB054B18685E
:1035D000391D4FF0FF33002205F0BAFB00BF08375A
:1035E000BD4680BDC001002480B483B000AF034657
:1035F000FB80B7F90630002B0BDBFB8803F01F02C2
:103600000749B7F906305B09012000FA02F241F8D8
:10361000232000BF0C37BD465DF8047B704700BF18
:1036200000E100E080B483B000AF0346FB80B7F94F
:103630000630002B12DBFB8803F01F020A49B7F9A2
:1036400006305B09012000FA02F2203341F8232002
:10365000BFF34F8F00BFBFF36F8F00BF00BF0C37AA
:10366000BD465DF8047B704700E100E080B483B0A4
:1036700000AF78607B6800221A607B6818460C37C0
:10368000BD465DF8047B704780B483B000AF7860BE
:103690007B681B6818460C37BD465DF8047B704795
:1036A00080B483B000AF7860044A7B681A607B689E
:1036B00018460C37BD465DF8047B7047E0BA020837
:1036C00080B582B000AF78607868FFF7E9FF042129
:1036D000786826F0DEFA7B6818460837BD4680BD5C
:1036E00080B582B000AF78607B681B6844331B688C
:1036F0007868984700BF0837BD4680BD80B483B066
:1037000000AF7860044A7B681A607B6818460C3703
:10371000BD465DF8047B7047A8CF020880B582B033
:1037200000AF78607868FFF7E9FF0C21786826F031
:10373000B0FA7B6818460837BD4680BD80B483B0B8
:1037400000AF78603960094A7B681A607B683A6824
:103750005A607B6800221A727B6800225A727B686A
:1037600018460C37BD465DF8047B7047A8CF0208A9
:1037700080B483B000AF7860012318460C37BD4693
:103780005DF8047B704780B582B000AF78607A68DE
:103790007B681B6828331B681046984700BF0837B2
:1037A000BD4680BD80B400AF034B1B681846BD46C4
:1037B0005DF8047B704700BF44AF002480B582B041
:1037C00000AF78607B685A687B685B681B6814335D
:1037D0001B681046984700BF0837BD4680BD80B5BE
:1037E00082B000AF7860FFF7DDFF03461846FFF7B1
:1037F000E5FF00BF0837BD4680BD80B582B000AF91
:1038000078607B680C331846FFF730FF7B681846FA
:103810000837BD4680BD0000B0B582B000AF78600B
:103820007A687B680C3319461046FFF787FF0E4A0B
:103830007B681A607B6803F10C007B682033602290
:10384000194615F027FD7B6820335F241D46002CA8
:1038500005DB2846FFF7D1FF2035013CF7E77B6801
:1038600018460837BD46B0BD90BA020880B582B090
:1038700000AF7860094A7B681A605A20FFF7D2FED1
:103880007B680C33184600F0C7FA7B681846FFF7D0
:1038900035FF7B6818460837BD4680BD90BA0208E0
:1038A00080B582B000AF78607868FFF7DFFF4FF433
:1038B0004261786826F0EDF97B6818460837BD4606
:1038C00080BD000080B584B000AF7860124BD3F8A3
:1038D000D430114A43F01003C2F8D4300E4BD3F861
:1038E000D43003F01003FB60FB680B4BDB6F0A4A1C
:1038F00043F01003D367084BDB6F074A23F0100334
:10390000D367064B064A1A625A20FFF76DFE00BFC6
:103910001037BD4680BD00BF0044025800B40024EB
:10392000DF37000880B584B000AF78600B46FB70CD
:103930000023FB60FB780B2B26D801A252F823F062
:103940007D39000877390008713900088939000885
:103950008939000889390008893900088339000845
:103960008339000883390008833900088339000847
:103970000023FB600EE00123FB600BE00223FB60F1
:1039800008E00523FB6005E0054B064A6621064872
:1039900026F0AEF9FB6818461037BD4680BD00BF63
:1039A000F0B002080CB1020858B1020880B584B02A
:1039B00000AF78600B46FB700023FB60FB780A2B9E
:1039C00021D801A252F823F0013A0008FB3900087F
:1039D000F5390008073A0008073A0008073A0008D6
:1039E000073A0008FB390008FB390008FB390008DA
:1039F000FB3900080023FB600BE00123FB6008E0BB
:103A00000223FB6005E0054B054A8721054826F0A7
:103A10006FF9FB6818461037BD4680BDF0B002084C
:103A2000A4B1020858B1020880B483B000AF786036
:103A300040F2EF3318460C37BD465DF8047B704703
:103A400090B589B000AF786039603B685B7F1946FC
:103A50007868FFF767FFB8613B689B7F1946786815
:103A6000FFF760FF78613B689B7F19467868FFF736
:103A70009DFF38613B685B8B1A463B689B8AD21A74
:103A8000964B1A643B685B8B1A463B689B8AD21A3A
:103A9000924B9A613B681B8B1A463B689B8AD21AF1
:103AA0008E4B1A618D4A3B6953633B68DB8A1A4629
:103AB0003B689B8A1B041A43884B5A643B681A690B
:103AC000864BDA633B685A68844BDA603B681B6854
:103AD000B3F5007F36D0B3F5007F00F2E280B3F596
:103AE000807F14D0B3F5807F00F2DB80802B59D02B
:103AF000802B00F2D680402B00F0BE80402B00F2DD
:103B0000D080042B39D0202B00F0B680C9E03B6870
:103B10001B7F1B061946714A714B0B43D3613B68EF
:103B20000C336E4C1846FFF7AFFD034623626B4A19
:103B30007B6953623B681A69684B5A61674B694AF3
:103B40001A60C7E03B681B7F1B061946634A664B39
:103B50000B43D3613B680C33604C1846FFF794FD70
:103B6000034623625D4A7B6953623B681A695B4B7B
:103B70005A615A4B5B4A1A60ACE03B681B7F1B06DC
:103B80001A46BB691343554A43F40033D361534A81
:103B90007B6953623B681A69504B5A614F4B514ADB
:103BA0001A6097E00123FB773B689B68FB60FB682A
:103BB0001A1D4A4BDA623B681B7F1B061A46BB691B
:103BC0001343464A43F40033D361444A7B6953624A
:103BD0003B681A69414B5A61FB681B88DBB2002BBA
:103BE00002D0012B0DD020E03C4BDA693F4B134053
:103BF000FA685288013A12021146384A0B43D361DF
:103C00001AE03B681B7FFF2B01D10023FB77334B6E
:103C1000DA69364B1340FA685288013A12021343AC
:103C20002E4A43F01003D36106E0314B314A40F293
:103C30001111314826F05CF8284BDB69274A43F024
:103C40002003D361254BDB6903F02003002B14BF55
:103C500001230023DBB2002B00D0F3E71F4B10221F
:103C60009A60FB7F002B03D01C4B1E4A1A6031E088
:103C70001A4B224A1A602DE03B681B7F1B061A462E
:103C8000BB691343154A43F40033D361134A7B697C
:103C900053623B681A69114B5A61104B114A1A6002
:103CA00018E03B681B7F1B061A46BB6913430B4A8F
:103CB00043F40033D3613B685A7F3B689B7F9A4251
:103CC00003D0064B0D4A1A6003E0044B40F2012278
:103CD0001A6000BF00BF2437BD4690BD00100052DF
:103CE0000A0002000102020009000200EF00FFFFCB
:103CF000F0B102080CB2020858B10208010201003A
:103D000090B585B000AF786039603B689B7F1946FD
:103D10007868FFF74BFEF8603B4AFB6853633B68EB
:103D2000DB8A1A463B689B8A1B041A43364B5A644B
:103D30003B681A69344BDA633B685B8B1A463B6815
:103D40009B8AD21A304B1A643B681B68082B2ED111
:103D50003B685B8B1A463B689B8AD21A2A4B9A6156
:103D60003B685B8B1A463B689B8AD21A264B1A61CA
:103D7000254AFB6853623B681B7F1B061946224A93
:103D8000224B0B43D3613B680C331F4C1846FFF7A3
:103D90007BFC034623623B681A691B4B5A613B68F4
:103DA0001A69194BDA60184B194A1A6027E0164A4B
:103DB000FB68D361144B00221A613B680C33184630
:103DC000FFF762FC03461B0A03F478443B680C339C
:103DD0001846FFF759FC03465B0903F4FC631C43D8
:103DE0003B680C331846FFF74FFC0346DB0803F033
:103DF0001F03054A23439363034B064A1A6000BF1F
:103E00001437BD4690BD00BF0010005209000100EC
:103E1000010202000102030080B582B000AF7860A9
:103E2000054A7B681A607B681846FFF739FC7B6897
:103E300018460837BD4680BDF8CF020880B582B06D
:103E400000AF78607868FFF7E7FF1421786825F005
:103E500020FF7B6818460837BD4680BD80B483B01C
:103E600000AF78607B6800221A807B6800225A804D
:103E70007B6800229A807B680022DA807B68184683
:103E80000C37BD465DF8047B7047000080B483B0FA
:103E900000AF7860044A7B68136000BF0C37BD46F2
:103EA0005DF8047B704700BFA0AF002480B483B0EE
:103EB00000AF7860044A7B681A607B6818460C374C
:103EC000BD465DF8047B7047FCBC020880B582B03B
:103ED00000AF78607868FFF7E9FF0421786825F083
:103EE000D8FE7B6818460837BD4680BD80B485B0D3
:103EF00000AFF860B9607A603B600B4AFB681A60FB
:103F0000FB68BA685A60FB687A689A60FB683A682E
:103F1000DA60FB68BA691A61FB6818461437BD4657
:103F20005DF8047B704700BFECBC020880B483B02E
:103F300000AF7860044A7B681A607B6818460C37CB
:103F4000BD465DF8047B7047ECBC020880B582B0CA
:103F500000AF78607868FFF7E9FF1421786825F0F2
:103F600098FE7B6818460837BD4680BD80B483B094
:103F700000AF7860396000BF0C37BD465DF8047B48
:103F8000704780B483B000AF7860396000BF0C37F1
:103F9000BD465DF8047B704780B483B000AF7860A5
:103FA000396000BF0C37BD465DF8047B704780B4B4
:103FB00083B000AF78600B46FB7000BF0C37BD4686
:103FC0005DF8047B704780B483B000AF786000BFB9
:103FD0000C37BD465DF8047B704780B483B000AFFA
:103FE000786000BF0C37BD465DF8047B7047000069
:103FF00080B483B000AF7860044A7B681A607B6845
:1040000018460C37BD465DF8047B7047C4BC0208F7
:1040100080B582B000AF78607868FFF7E9FF0421CF
:10402000786825F036FE7B6818460837BD4680BDA7
:1040300080B483B000AF7860044A7B681A607B6804
:1040400018460C37BD465DF8047B7047A0D30208C4
:1040500080B582B000AF78607868FFF7E9FF08218B
:10406000786825F016FE7B6818460837BD4680BD87
:1040700080B483B000AF78600B46FB7000BF0C3794
:10408000BD465DF8047B704780B483B000AF7860B4
:1040900039607B683A6803F596731068516803C30A
:1040A00000BF0C37BD465DF8047B704780B483B019
:1040B00000AF7860044A7B681A607B6818460C374A
:1040C000BD465DF8047B7047ACBC020880B582B089
:1040D00000AF78607868FFF7E9FF0421786825F081
:1040E000D8FD7B6818460837BD4680BD80B483B0D4
:1040F00000AF78607B6800221A807B6800225A80BB
:104100007B6800229A807B680022DA807B6800222C
:104110001A817B6800225A817B6800229A817B6821
:1041200000229A737B6818460C37BD465DF8047B05
:10413000704780B582B000AF78607B681846FFF7A3
:10414000D5FF7B6800221A617B6800229A827B6817
:1041500018460837BD4680BD80B584B000AFF86012
:10416000B9607A603B60554AFB681A60FB68BA68C0
:104170005A60FB687A689A60FB683A68DA60FB68A4
:1041800000221A61FB6800225A61FB6800229A61D2
:10419000FB681C331846FFF7CCFFFB68002283F84E
:1041A0003420FB6800229A63FB680022DA63FB6814
:1041B00000221A64FB6800225A64FB68002283F81C
:1041C0004820FB68012283F84920FB68002283F81D
:1041D0004A20FB68002283F84B20FB680022DA6447
:1041E000FB6850331846FFF739FEFB6800229A65DA
:1041F000FB680022DA65FB6800221A66FB68012270
:1042000083F86420FB68002283F86520FB680022A5
:1042100083F86620FB68012283F86720FB68002290
:1042200083F86820FB68002283F86920FB6800227D
:1042300083F86A20FB68002283F86B20FB68002269
:1042400083F86C20FB6800221A67FB68002283F861
:104250007420FB68002283F87520FB68002283F835
:104260007620FB68012283F87720FB68012283F81F
:104270007820134AFB681360124A3B8B1380114B62
:104280001A88114B1A80114ABB8B13800F4B1A8866
:104290000F4B1A800F4B00221A703A8BBB8B9A423D
:1042A00034BF01230023DBB21A46FB6883F83420B5
:1042B000FB6818461037BD4680BD00BF50CA0208D3
:1042C00044AF002438AF00243EAF00243AAF0024AE
:1042D00040AF00243CAF002480B582B000AF7860CE
:1042E000054A7B681A607B681846FFF781FE7B6889
:1042F00018460837BD4680BDB4D4020880B582B0E8
:1043000000AF78607868FFF7E7FF4FF49C7178683A
:1043100025F0BFFC7B6818460837BD4680BD80B5D8
:1043200082B000AF7860786800F004F800BF08370A
:10433000BD4680BD80B582B000AF78607B68D3F8A1
:104340003C31002B0FD07B68D3F83C217B68D3F83D
:104350003C311B680C331B68104698470346002B02
:1043600001D0012300E00023002B0ED07B68D3F89E
:104370003C217B68D3F83C311B6808331B6810462E
:1043800098477B680022C3F83C2100BF0837BD4630
:1043900080BD000080B582B000AF7860054A7B68C0
:1043A0001A607B681846FFF797FF7B681846083746
:1043B000BD4680BD68BC020880B582B000AF7860A1
:1043C0007868FFF7E7FF4FF4A071786825F061FC8B
:1043D0007B6818460837BD4680BD000080B582B0B6
:1043E00000AF7860084A7B681A607B6803F5A073A9
:1043F000184600F0E9FA7B681846FFF7CBFF7B68A8
:1044000018460837BD4680BD0CBC020880B582B096
:1044100000AF78607868FFF7E1FF4FF4AC7178681F
:1044200025F037FC7B6818460837BD4680BD000084
:1044300080B582B000AF7860054A7B681A607B68FF
:104440001846FFF7CBFF7B6818460837BD4680BD8E
:10445000C8BB020880B582B000AF78607868FFF70B
:10446000E7FF4FF4AC71786825F013FC7B681846C1
:104470000837BD4680BD80B582B000AF78607B68EC
:10448000D3F85431184603F0FDFF7B68184616F048
:1044900025FE00BF0837BD4680BD80B582B000AFA5
:1044A000786039603B68184601F0EEF800BF0837C5
:1044B000BD4680BD80B586B002AFF860B9607A6055
:1044C0003B60F868BB6900933B687A68B968FFF79E
:1044D0000DFD044AFB681A60FB6818461037BD469C
:1044E00080BD00BFB4BB020880B500AF014800F03A
:1044F0005FF980BDC401002480B500AF124B1B786A
:10450000BFF35B8FDBB203F00103002B0CBF012371
:104510000023DBB2002B13D00B4825F0BCFB034675
:10452000002B14BF01230023DBB2002B08D0074867
:1045300000F068F8044825F0BAFB054825F0F6FBC2
:10454000024B184680BD00BFCC080024C4010024E3
:10455000E944000880B582B000AF7860054A7B6806
:104560001A607B681846FFF7E1FC7B68184608373D
:10457000BD4680BDB4BB020880B582B000AF786094
:104580007868FFF7E7FF1421786825F082FB7B68E5
:1045900018460837BD4680BD80B582B000AF786050
:1045A0007B68184612F0B8FD034A7B681A607B6886
:1045B00018460837BD4680BD80BB020880B582B072
:1045C00000AF78607B68184612F0A6FD034A7B684E
:1045D0001A607B6818460837BD4680BD4CBB020890
:1045E00080B582B000AF78607B68184612F094FD09
:1045F000034A7B681A607B6818460837BD4680BD51
:1046000018BB020890B585B002AF786078687B6807
:1046100003F114017B6803F12C027B6803F5B3649A
:104620007B6803F5B66300932346FFF743FF184A00
:104630007B681A607B6814331846FFF7ADFF7B6810
:104640002C331846FFF7BAFF7B6803F5B3631846AF
:10465000FFF7C6FF7B6803F2AC53184603F004FF74
:104660007B6803F5B6607B6803F2AC537A68194641
:1046700003F0E4FE7A687B6803F5B66319461046DA
:10468000FFF70BFF7B6818460C37BD4690BD00BF97
:1046900004BB020880B586B002AFF860B9607A60EA
:1046A0003B60F868BB8B01933B8B00933B687A6857
:1046B000B968FFF751FD044AFB681A60FB681846A9
:1046C0001037BD4680BD00BF10BD020880B586B062
:1046D00002AFF860B9607A603B60F868BB8B019309
:1046E0003B8B00933B687A68B968FFF7D3FF044AB5
:1046F000FB681A60FB6818461037BD4680BD00BFD6
:10470000C0B9020880B483B000AF7860044A7B6807
:104710001A607B6818460C37BD465DF8047B70470D
:10472000A8B9020880B582B000AF78607B681846EF
:10473000FFF7E8FF034A7B681A607B681846083772
:10474000BD4680BD90B9020890B585B002AF00F0BB
:1047500051FD044600F058FD03461946002300931E
:1047600000230022204619F03DFA0948FFF78EFB8E
:10477000002003F0B1FD074819F076F9FFF7BCFE01
:1047800078600548FEF7B8FD00BF0C37BD4690BD08
:104790006C150024240000247015002480B500AF9F
:1047A000024813F02EFE00BF80BD00BF701500242C
:1047B00080B582B000AF7860104A7B681A607B6871
:1047C00003F5B6631846FFF733FE7B6803F5B36362
:1047D000184600F027F87B682C33184600F044F8A0
:1047E0007B681433184600F063F87B681846FFF7BF
:1047F000B1FE7B6818460837BD4680BD04BB020881
:1048000080B582B000AF78607868FFF7D1FF4FF4D1
:10481000E161786825F03DFA7B6818460837BD46A7
:1048200080BD000080B582B000AF7860054A7B682B
:104830001A607B68184612F06DFC7B6818460837D2
:10484000BD4680BD18BB020880B582B000AF78605D
:104850007868FFF7E7FF1421786825F01AFA7B687B
:1048600018460837BD4680BD80B582B000AF78607D
:10487000054A7B681A607B68184612F04BFC7B681F
:1048800018460837BD4680BD4CBB020880B582B0D3
:1048900000AF78607868FFF7E7FF40F26C51786806
:1048A00025F0F7F97B6818460837BD4680BD000043
:1048B00080B582B000AF7860054A7B681A607B687B
:1048C000184612F027FC7B6818460837BD4680BDA5
:1048D00080BB020880B582B000AF78607868FFF7CF
:1048E000E7FF1821786825F0D4F97B681846083767
:1048F000BD4680BD80B582B000AF7860054A7B6858
:104900001A607B681846FFF793FB7B6818460837E8
:10491000BD4680BD58E6020880B582B000AF786021
:104920007868FFF7E7FF7821786825F0B2F97B68AF
:1049300018460837BD4680BD80B584B002AF7860A8
:1049400039607B68012B19D13B684FF6FF729342A7
:1049500014D11848FFF7E6FE1748FEF75DFF174829
:104960001CF008FA4FF4887301934FF4F07300932E
:10497000104B124A10491248FFF7A8FE7B68002B23
:1049800013D13B684FF6FF7293420ED10C48FEF7ED
:104990002BFD0C4800F03AF80848FFF7ABFF06483B
:1049A000FEF764FF0348FEF7ADFA00BF0837BD46C7
:1049B00080BD00BFD0080024D4080024F4140024D3
:1049C000701500242400002480B582B000AF786008
:1049D000054A7B681A607B681846FFF767FB7B68AF
:1049E00018460837BD4680BD50BC020880B582B06D
:1049F00000AF78607868FFF7E7FF1021786825F04E
:104A000048F97B6818460837BD4680BD80B582B03E
:104A100000AF7860054A7B681A607B681846FFF72C
:104A200045FA7B6818460837BD4680BDE0BD0208E0
:104A300080B582B000AF78607868FFF7E7FF0421A7
:104A4000786825F026F97B6818460837BD4680BD92
:104A500080B483B000AF7860012318460C37BD46A0
:104A60005DF8047B704780B483B000AF78600C239E
:104A700018460C37BD465DF8047B704780B483B0A0
:104A800000AF78600B467B807A8813465B00134446
:104A90009B0008337A68134418460C37BD465DF80E
:104AA000047B704780B483B000AF78600B467B8096
:104AB0007A8813465B0013449B0008337A681344DA
:104AC00018460C37BD465DF8047B704780B483B050
:104AD00000AF7860012318460C37BD465DF8047BB3
:104AE000704780B483B000AF786040F264531846DA
:104AF0000C37BD465DF8047B704780B483B000AFCF
:104B000078600B467B807B8840F2645202FB03F3A3
:104B100008337A68134418460C37BD465DF8047BA9
:104B2000704780B483B000AF78600B467B807B8891
:104B300040F2645202FB03F308337A6813441846C8
:104B40000C37BD465DF8047B704780B483B000AF7E
:104B50007860012318460C37BD465DF8047B70472A
:104B600080B483B000AF7860102318460C37BD4680
:104B70005DF8047B704780B483B000AF78600B466B
:104B80007B807B881B0108337A68134418460C37F6
:104B9000BD465DF8047B704780B483B000AF786099
:104BA0000B467B807B881B0108337A6813441846C8
:104BB0000C37BD465DF8047B704780B582B000AF0E
:104BC00078607B685B687A68D268521099187B6855
:104BD000DB6803F00103002B02D17B689B680AE0CD
:104BE0007B685B687A68D268521013441B687A68E5
:104BF000926813441B680846984700BF0837BD46B3
:104C000080BD80B483B000AF78607B685B68002BA8
:104C100010D07B689B68002B07D17B68DB6803F0B2
:104C20000103002B01D1012300E00023012B01D05F
:104C3000012300E0002318460C37BD465DF8047BD5
:104C4000704780B500AF4FF6FF710120FFF774FE8B
:104C500080BD80B500AF4FF6FF710020FFF76CFEFE
:104C600080BD80B582B000AF78607B681B68203360
:104C70001B687868984700BF0837BD4680BD80B480
:104C800083B000AF78607B6893F866300133DAB2A6
:104C90007B6883F8662000BF0C37BD465DF8047B57
:104CA0007047000080B483B000AF0346FB80B7F9C3
:104CB0000630002B0BDBFB8803F01F020749B7F916
:104CC00006305B09012000FA02F241F8232000BF00
:104CD0000C37BD465DF8047B704700BF00E100E083
:104CE00080B483B000AF0346FB80B7F90630002BD9
:104CF00012DBFB8803F01F020A49B7F906305B0993
:104D0000012000FA02F2203341F82320BFF34F8F35
:104D100000BFBFF36F8F00BF00BF0C37BD465DF80B
:104D2000047B704700E100E080B483B000AF03462D
:104D30003960FB80B7F90630002B0ADB3B68DAB23A
:104D40000C49B7F906301201D2B20B4483F80023A4
:104D50000AE03B68DAB20849FB8803F00F03043B22
:104D60001201D2B20B441A7600BF0C37BD465DF873
:104D7000047B704700E100E000ED00E0B0B582B0D8
:104D800000AF78607B68184613F029FB7D687B686C
:104D90001B6860331C6816F087FA034619462846DC
:104DA000A04778687B681B6884331C680023044A2A
:104DB0004FF05041A04700BF0837BD46B0BD00BF0F
:104DC000000020D080B582B000AF786009215A2061
:104DD000FFF7AAFF09215820FFF7A6FF00BF0837F9
:104DE000BD4680BD80B582B000AF78605A20FFF725
:104DF00059FF5820FFF756FF00BF0837BD4680BD5A
:104E000080B582B000AF78605A20FFF769FF582064
:104E1000FFF766FF00BF0837BD4680BD80B483B092
:104E200000AF7860114BDB689BB2C3F30A039BB2FF
:104E3000013B9AB20E4B1A800C4B1B699BB2C3F319
:104E40000A039BB2013B9AB20A4B1A80084B1A889C
:104E5000064B1A64054B5B6B044A43F00103536332
:104E600000BF0C37BD465DF8047B70470010005052
:104E7000EC150024EE15002480B582B000AF7860F8
:104E80007B68184613F092FA034618460837BD4669
:104E900080BD80B582B000AF78607B68184613F0A3
:104EA00091FA00BF0837BD4680BD000080B483B0D2
:104EB00000AF7860034B9B6A18460C37BD465DF81F
:104EC000047B70478410005080B483B000AF7860DA
:104ED0003960064A3B689362054B01225A6200BF63
:104EE0000C37BD465DF8047B704700BF841000504E
:104EF0000010005080B586B000AF786039607B68E4
:104F00003968184613F01BFA254B5B6903F48033AC
:104F1000002B14BF01230023DBB2002B3CD0204B1D
:104F20000022C3F88420BFF34F8F00BF1C4BD3F87F
:104F300080307B617B695B0BC3F30E033B617B6954
:104F4000DB08C3F30903FB603B695A0143F6E073D6
:104F50001340FA68920712491343C1F87432FB6890
:104F60005A1EFA60002B14BF01230023DBB2002B72
:104F700000D0E9E73B695A1E3A61002B14BF0123B8
:104F80000023DBB2002B00D0D9E7BFF34F8F00BF67
:104F9000BFF36F8F00BF00BF00BF1837BD4680BD95
:104FA00000ED00E080B584B000AFF860B9607A60D1
:104FB0003B60F8683B687A68B96813F02CFB0346DD
:104FC00018461037BD4680BD80B487B000AF78600A
:104FD000264B5B6903F48033002B14BF01230023AD
:104FE000DBB2002B3CD0214B0022C3F88420BFF35E
:104FF0004F8F00BF1D4BD3F880307B617B695B0B0B
:10500000C3F30E033B617B69DB08C3F30903FB6059
:105010003B695A0143F6E0731340FA68920713495B
:105020001343C1F87432FB685A1EFA60002B14BF98
:1050300001230023DBB2002B00D0E9E73B695A1EB5
:105040003A61002B14BF01230023DBB2002B00D0F8
:10505000D9E7BFF34F8F00BFBFF36F8F00BF00BF13
:1050600000BF1C37BD465DF8047B704700ED00E0D3
:1050700080B487B000AF7860264B5B6903F480335F
:10508000002B14BF01230023DBB2002B3CD0214BAB
:105090000022C3F88420BFF34F8F00BF1D4BD3F80D
:1050A00080307B617B695B0BC3F30E033B617B69E3
:1050B000DB08C3F30903FB603B695A0143F6E07365
:1050C0001340FA68920713491343C1F87432FB681E
:1050D0005A1EFA60002B14BF01230023DBB2002B01
:1050E00000D0E9E73B695A1E3A61002B14BF012347
:1050F0000023DBB2002B00D0D9E7BFF34F8F00BFF6
:10510000BFF36F8F00BF00BF00BF1C37BD465DF807
:10511000047B704700ED00E080B582B000AF78609E
:105120001A4B1B6C1A4A128893420CBF01230023AE
:10513000DBB2002B17D0174B1B88194678680BF091
:10514000AFFAFEF72FFB03461846FFF798FDFEF770
:1051500023FAFEF727FB0346184613F035FF00201D
:10516000FDF7F2FE0EE00A4B1B88194678680BF03B
:1051700097FA0020FDF704FFFEF714FB03461846DC
:10518000FFF76FFD00BF0837BD4680BD001000501F
:10519000EC150024EE15002480B582B000AF7860D5
:1051A0000B467B807B88032B1ED801A252F823F08C
:1051B000C1510008CB510008D5510008DF5100084B
:1051C00003F002F903461B680FE003F0FDF8034605
:1051D0005B680AE003F0F8F803469B6805E003F01B
:1051E000F3F80346DB6800E0002318460837BD46A5
:1051F00080BD00BF80B400AF024B1846BD465DF8CD
:10520000047B7047ECBD020880B400AF0123184650
:10521000BD465DF8047B704780B483B000AF786012
:10522000044A7B681A607B6818460C37BD465DF8F7
:10523000047B704714C2020880B582B000AF78606A
:105240007868FFF7E9FF1021786824F022FD7B6879
:1052500018460837BD4680BD90B587B000AF78606E
:105260000B467B807B88002B01D1002310E00023BC
:105270003B610023FB737B681B6808331C6807F1E4
:105280000F0307F1100279887868A04778617B697D
:1052900018461C37BD4690BD80B483B000AF78601F
:1052A0007B685B8918460C37BD465DF8047B704708
:1052B00080B483B000AF78607B689B8918460C3758
:1052C000BD465DF8047B704780B483B000AF786062
:1052D0007B689B8818460C37BD465DF8047B704799
:1052E00080B483B000AF78607B689A887B689B79D4
:1052F0009BB213449BB218460C37BD465DF8047B45
:10530000704780B483B000AF78607B68DB79C3F30B
:105310000603DBB218460C37BD465DF8047B7047C8
:1053200080B483B000AF78607B68DB79C3F3C013CF
:10533000DBB218460C37BD465DF8047B70470000B1
:1053400080B582B000AF7860054A7B681A607B68E0
:105350001846FFF761FF7B6818460837BD4680BDD9
:1053600078D7020880B582B000AF78607868FFF720
:10537000E7FF1821786824F08CFC7B681846083712
:10538000BD4680BD80B582B000AF7860054A7B68BD
:105390001A607B681846FFF7D3FF7B68184608370A
:1053A000BD4680BD60BE020880B582B000AF7860A7
:1053B0007868FFF7E7FF2821786824F06AFC7B68AB
:1053C00018460837BD4680BD80B483B000AF786012
:1053D000044A7B681A607B6818460C37BD465DF846
:1053E000047B704708BE020880B582B000AF7860C9
:1053F0007868FFF7E9FF0821786824F04AFC7B68A9
:1054000018460837BD4680BD80B483B000AF7860D1
:1054100039603B6818460C37BD465DF8047B704721
:1054200080B400AF0B4B1B6893F87630002B08D08C
:10543000084B1B68DB6C002B03D0064B1B68DB6C36
:1054400002E0044B1B689B681846BD465DF8047B70
:10545000704700BF44AF002480B483B000AF7860D1
:10546000074A7B681A607B6800225A607B680022CA
:105470001A727B6818460C37BD465DF8047B70478E
:105480003CBE020880B483B000AF7860044A7B68F9
:105490001A607B6818460C37BD465DF8047B704780
:1054A0003CBE020880B582B000AF78607868FFF734
:1054B000E9FF0C21786824F0ECFB7B68184608377C
:1054C000BD4680BD80B483B000AF786000BF0C37AC
:1054D000BD465DF8047B704780B483B000AF786050
:1054E00000BF0C37BD465DF8047B704780B483B0C5
:1054F00000AF786000BF0C37BD465DF8047B704795
:1055000080B582B000AF786015F0CEFE03461A6811
:10551000303212681846904700BF0837BD4680BD3C
:1055200080B483B000AF786039607B683A685A60B5
:1055300000BF0C37BD465DF8047B704780B582B074
:1055400000AF78607B68184615F018FF094A7B6841
:105550001A607B680022C3F838217B680022C3F8F8
:105560003C217B68044A13607B6818460837BD46B7
:1055700080BD00BF68BC020890AF002480B483B037
:1055800000AF786039607B683A681A6000BF0C37FA
:10559000BD465DF8047B704780B483B000AF78608F
:1055A0007B6801221A7200BF0C37BD465DF8047B90
:1055B000704780B483B000AF786039607B683A6828
:1055C0005A6000BF0C37BD465DF8047B7047000091
:1055D00080B584B000AFF860B9607A60FB681846A7
:1055E000FFF7ACFF134AFB681A60FB6803F5A07372
:1055F000184600F09FF8FB687A68C3F85021FB68F2
:10560000BA68C3F85421FEF7CDF803461A68083289
:105610001268002118469047002002F05DFEFFF757
:10562000FFFE034618461DF0F0F9FB6818461037D8
:10563000BD4680BD0CBC020880B483B000AF78606A
:1056400039607B6818460C37BD465DF8047B7047AF
:1056500080B582B000AF786039607B683A681146E7
:105660001846FFF7E9FF3B685A687B685A607B6819
:105670003A680833083292E8030083E803007B6845
:1056800018460837BD4680BD90B589B000AF786038
:105690007B6803F5A074104BBB610023FB6107F12D
:1056A000080007F118030CCB796800F05FF807F1E8
:1056B000080319462046FFF7CBFF07F108031846F9
:1056C000FFF782F97B6803F5A0727B68C3F83C2181
:1056D00000BF2437BD4690BDDD56000880B584B0BC
:1056E00002AF78607B6803F59C717B68D3F850311A
:1056F0001A467B68D3F854310093044B044800F0F9
:1057000067F800BF0837BD4680BD00BF84AF0024E6
:1057100080AF002480B483B000AF7860044A7B6817
:105720001A607B6818460C37BD465DF8047B7047ED
:10573000ACBC020880B582B000AF78607B681846C8
:10574000FFF7E8FF084A7B681A607B6800225A600E
:105750007B6800229A607B680022DA607B681846CA
:105760000837BD4680BD00BF50BC020880B584B07C
:1057700000AFF860B960394681E80C00FB68184654
:10578000FFF7C8FF084AFB681A60FB68BA685A60EE
:10579000FB6808333A4692E8030083E80300FB689D
:1057A00018461037BD4680BD50BC020880B582B097
:1057B00000AF78607B681846FFF74EFE034A7B68AF
:1057C0001A607B6818460837BD4680BD18BE0208BF
:1057D00090B58FB000AFF860B9607A603B607B68CD
:1057E0009A687B689B681B6820331B681046984743
:1057F000034640F26352934205D87F4B7F4AA32170
:105800007F4824F075FA00BF7B685A687B685B6844
:105810001B6820331B681046984703460F2B05D89A
:10582000784B764AA421764824F062FA00BF7B6860
:10583000DA687B68DB681B6820331B681046984772
:1058400003460B2B05D8704B6C4AA5216C4824F0FD
:105850004FFA00BFFB68BB62BB687B623B683B6280
:1058600015F022FD0346184615F06CFD3B6A1B68D7
:10587000002B08D03B6A1A683B6A1B681B680C3314
:105880001B68104698473B6A1B68002B07D03B6A91
:105890001A683B6A1B681B681B6810469847BB6AFE
:1058A0001B68002B08D0BB6A1A68BB6A1B681B68A0
:1058B00014331B68104698477B6A1B68002B08D07E
:1058C0007B6A1A687B6A1B681B6804331B68104676
:1058D0009847BB6A1B68002B07D0BB6A1A68BB6A73
:1058E0001B681B681B68104698477B6A1B68002B67
:1058F00008D07B6A1A687B6A1B681B6808331B68C0
:105900001046984700BF7B68DB680021184600F00E
:105910007DF8034619460C20FFF776FD0446204625
:10592000FFF744FF7C637B689B680021184600F00A
:1059300080F80346194640F26450FFF765FD0446BF
:10594000204602F0ADFE3C637B685B680021184690
:1059500000F082F8034619461020FFF755FD044673
:10596000396B204602F044FEFC623B687A6B1A6099
:10597000BB68FA6A1A60FB683A6B1A60FB6A002B14
:1059800002D0FB6A043300E000231946B86CFFF72D
:10599000F5FDFB6A0433B96C1846FFF70AFE3B6B52
:1059A000F96A184600F06BF83B6BFB61FB6ABB6160
:1059B0007B6B7B61FB691B680C331B68F86998473C
:1059C000BB691B681B68B86998477969F86917F063
:1059D00063F87B691B6810331B68786998477B699B
:1059E0001B6814331B687869984700BFFB6A184628
:1059F0003C37BD4690BD00BF4CB20208DCB2020885
:105A0000E0B3020838B40208DCB4020880B582B002
:105A100000AF78600B467B807B681B6824331B6873
:105A20007A88114678689847034618460837BD4675
:105A300080BD80B582B000AF78600B467B807B680C
:105A40001B6824331B687A88114678689847034698
:105A500018460837BD4680BD80B582B000AF78607B
:105A60000B467B807B681B6824331B687A88114651
:105A700078689847034618460837BD4680BD80B40D
:105A800083B000AF786039607B683A68DA6300BF42
:105A90000C37BD465DF8047B7047000080B582B0CE
:105AA00000AF7860054A7B681A607B681846FFF78C
:105AB000E9FC7B6818460837BD4680BD18BE020861
:105AC00080B582B000AF78607868FFF7E7FF0C21FF
:105AD000786824F0DEF87B6818460837BD4680BD3C
