:020000040800F2
:1000000000000824916600081D2C0008232C00081D
:10001000292C00082F2C0008352C000800000000B7
:1000200000000000000000000000000021CE0008D9
:100030003B2C00080000000071D00008F1C000084F
:10004000E1660008E1660008E1660008E166000874
:10005000E1660008E1660008E1660008E166000864
:10006000E1660008E1660008E1660008E166000854
:10007000E1660008E1660008E1660008E166000844
:10008000E1660008E1660008E1660008E166000834
:10009000E1660008E1660008E1660008E166000824
:1000A000E1660008E1660008E1660008E166000814
:1000B000E1660008E1660008E1660008E166000804
:1000C000E1660008E1660008E1660008E1660008F4
:1000D000E1660008E1660008E1660008E1660008E4
:1000E000E1660008E166000800000000E166000823
:1000F000E1660008E1660008E1660008E1660008C4
:10010000E1660008E1660008E1660008E1660008B3
:10011000E1660008E1660008492C0008E166000875
:10012000E1660008E1660008E1660008E166000893
:10013000E1660008E1660008E1660008E166000883
:10014000E1660008E1660008000000000000000011
:10015000E1660008E1660008E1660008E166000863
:10016000E1660008E1660008E1660008E166000853
:10017000E1660008E1660008E16600080000000092
:10018000E1660008E1660008E1660008E166000833
:10019000E1660008E1660008E1660008E166000823
:1001A0005D2C0008E1660008712C0008E16600087B
:1001B000852C0008E1660008E1660008E166000899
:1001C000E1660008E1660008E1660008E1660008F3
:1001D000E1660008992C0008E1660008E166000865
:1001E000E1660008E1660008E1660008E1660008D3
:1001F000E1660008E1660008E1660008E1660008C3
:10020000E1660008E1660008E1660008E1660008B2
:10021000E1660008E1660008E1660008E1660008A2
:10022000E1660008E1660008E166000800000000E1
:10023000E1660008E1660008E1660008E166000882
:10024000E1660008E1660008E1660008E166000872
:10025000E1660008E1660008E1660008E166000862
:10026000E1660008E1660008E1660008E166000852
:10027000E1660008E1660008E1660008E166000842
:10028000E1660008E1660008E16600080000000081
:08029000E1660008E1660008C8
:1002A00010B5054C237833B9044B13B10448AFF3B0
:1002B00000800123237010BDA00200240000000074
:1002C0000013030808B5034B1BB103490348AFF300
:1002D000008008BD00000000A402002400130308F1
:1002E000034613F8012B002AFBD1181A0138704776
:1002F00001F0FF01102A2BDB10F0070F08D010F8D7
:10030000013B013A8B422DD010F0070F42B3F6D1DA
:10031000F0B441EA012141EA014122F007047FF0F3
:1003200000070023F0E80256083C85EA010586EA4A
:10033000010685FA47F5A3FA87F586FA47F6A5FA86
:1003400087F68EB9EED1F0BC01F0FF0102F0070292
:1003500032B110F8013B013A83EA010313B1F8D13D
:100360000020704701387047002D06BF354603381E
:10037000073815F0010F07D1013015F4807F02BF57
:10038000013015F4C03F0130F0BC0138704700BFA8
:1003900053B94AB9002908BF00281CBF4FF0FF31EC
:1003A0004FF0FF3000F06EB9ADF1080C6DE904CEEE
:1003B00000F006F8DDF804E0DDE9022304B0704740
:1003C0002DE9F047089D04468C46002B40F08380C1
:1003D0008A42174647D9B2FA82F242B1C2F12000EE
:1003E00024FA00F09140974040EA010C94404FEA13
:1003F0001748230CBCFBF8F61FFA87FE08FB16C152
:1004000043EA014306FB0EF1994209D9FB1806F1B4
:10041000FF3080F01981994240F21681023E3B4440
:100420005B1AA4B2B3FBF8F008FB103344EA0344B0
:1004300000FB0EFEA64509D93C1900F1FF3380F000
:100440000581A64540F2028102383C4440EA06405C
:10045000A4EB0E0400261DB1D4400023C5E90043DF
:100460003146BDE8F08702B9FFDEB2FA82F2002A17
:1004700050D1CB1B4FEA174E1FFA87F80126B3FB6A
:10048000FEFC210C0EFB1C3341EA034108FB0CF37C
:100490008B4207D979180CF1FF3002D28B4200F25F
:1004A000E9808446C91AA3B2B1FBFEF00EFB10111D
:1004B00043EA014408FB00F8A04507D93C1900F1C4
:1004C000FF3302D2A04500F2D9801846A4EB0804FD
:1004D00040EA0C40BFE78B4209D9002D00F0B18003
:1004E0000026C5E9000130463146BDE8F087B3FA81
:1004F00083F6002E4AD18B4202D3824200F2B880AA
:10050000841A61EB030101208C46002DA8D0C5E9B7
:10051000004CA5E7C2F1200320FA03F6974001FA48
:1005200002F04FEA174ED9403043030CB1FBFEF600
:100530001FFA87F80EFB161143EA014306FB08F188
:10054000994204FA02F409D9FB1806F1FF3C80F045
:100550008D80994240F28A80023E3B445B1A81B210
:10056000B3FBFEF00EFB103341EA034100FB08F33E
:100570008B4207D9791800F1FF3C73D28B4271D9B5
:1005800002383944CB1A40EA064678E7C6F1200C17
:1005900003FA06F422FA0CF31C4320FA0CF701FAD2
:1005A00006F34FEA144E21FA0CF11F433B0CB1FB4A
:1005B000FEF91FFA84F80EFB191143EA014109FB09
:1005C00008FA8A4502FA06F200FA06F308D9611819
:1005D00009F1FF3048D28A4546D9A9F102092144E0
:1005E000A1EB0A01BFB2B1FBFEF00EFB101147EA0E
:1005F000014700FB08F8B84507D9E71900F1FF31BA
:100600002ED2B8452CD90238274440EA0940A7EB3E
:100610000807A0FB02894F45C64649461AD317D0A2
:100620005DB1B3EB0E0267EB010707FA0CFCF24079
:100630004CEA0202F740C5E9002700263146BDE832
:10064000F0872E4628460BE70646E9E61846FDE603
:100650004345E5D2B8EB020E69EB04010138DFE750
:100660000846D2E760468DE78146B9E7664675E7FA
:1006700030464AE7ACF1020C394413E702383C44F7
:1006800024E700BF704700BF90B587B000AF786027
:100690000023FB8200233B619F4B1B6800221A75DD
:1006A0009D4B1B6800225A759B4B1B680022DA8207
:1006B000994B1B6800229A62974B1B680022DA62F2
:1006C000954B1B6800221A63934B1B6800225A63E8
:1006D00000F026F90346914A934202D04FF0FF33CF
:1006E00015E17B6803F00203002B01D100F06EFDE1
:1006F0007B6803F00203002B04D07B6803F0F8034F
:10070000002B02D1002000F06DFC042200212420E7
:1007100000F0B1FB7B6803F00203002B16D104202C
:1007200000F0FFFB38613B69DBB2002B1FD00222D7
:1007300012212D2000F09FFB774B1B68DA8A764B45
:100740001B6842F4805292B2DA8210E030212820F5
:1007500000F04DFB0346B3F1883F08D06E4B1B6899
:10076000DA8A6D4B1B6842F4805292B2DA827B685F
:1007700003F00203002B09D07B6803F00203002B77
:1007800011D07B6803F00803002B0CD01E2000F072
:10079000C8FB0346FB82FB8A1B0A9AB25E4B1B68AE
:1007A000D2B2DA7203E05C4B1B680022DA727B681B
:1007B00003F00203002B0BD1FB8A03F01F03002B75
:1007C00001D11023FB82FB8ADBB2184600F024FD26
:1007D0007B6803F01003002B07D04F4B1C680620EA
:1007E00000F09FFB0346236003E04B4B1B68002295
:1007F0001A607B6803F02003002B07D0464B1C686F
:10080000072000F08EFB0346636003E0424B1B6849
:1008100000225A607B6803F04003002B08D00820B8
:1008200000F07FFB02463C4B1B68D2B21A7203E019
:10083000394B1B6800221A727B6803F08003002B7F
:1008400008D0092000F06DFB0246334B1B68D2B282
:100850005A7203E0304B1B6800225A727B6803F027
:100860000203002B21D17B6803F00103002B0BD086
:1008700000F0A4FB284B1B68DA8A274B1B6842F464
:10088000006292B2DA821EE00521362000F0D6FA2C
:100890000346FB81FB8923F40073FB81FB891A4625
:1008A0000521362000F0FAFA0DE07B6803F004031E
:1008B000002B08D1184B1B68DA8A174B1B6842F4CF
:1008C000006292B2DA82012000F08CFB00220A2141
:1008D0002C2000F0D0FA104B1C680021042000F0FE
:1008E00086FA034623610C4B1B681B691B0CDAB2AA
:1008F000094B1B6802F00302D2B29A72064B1C68C5
:100900000021082000F073FA0346E3600023184634
:100910001C37BD4690BD00BF040000243001CADE74
:1009200080B500AF0021002000F061FA03461846B0
:1009300080BD000080B586B000AF78600023FB75F5
:100940000023BB757B681B78FB747B685B791A4658
:10095000A14B33F81230BB827B685B78013BBB74E0
:10096000FB7C042B02D0FB7C072B01D1012300E090
:1009700000237B747B68DB79002B0BD1974B1B68C2
:100980001A69964B1B6842F480021A61BB8ADB0825
:10099000BB8207E0914B1B681A69904B1B6822F4DD
:1009A00080021A618D4B1B687A68127A9A728B4B9F
:1009B0001B681A69894B1B6822F440321A61874B05
:1009C0001B6819697B681B7A1B0403F44032834B54
:1009D0001B680A431A61814B1B681B691A46002178
:1009E000042000F077FABB8A1A4642F604012E2052
:1009F00000F054FABB7C184600F0C0FAFB7C784A41
:100A0000D35C1A46774B53F822301A4607212B2025
:100A100000F060FAFB7C724AD35C1A46724B9B5C16
:100A20001A460B212B2000F026FA7B7C6F4AD35C00
:100A30001A460B21282000F01EFAFB7C684AD35C82
:100A40001A466B4B53F822301A460C21282000F02E
:100A500041FA7B68DB7918467B689B791946654AC1
:100A600043000B4432F813301A460221272000F0CD
:100A700015FABB7C604A32F813301A46042127204D
:100A800000F00CFA7B68DB79002B05D1642206218B
:100A9000272000F003FA18E07B689B78042B0AD12A
:100AA00010220621272000F0F9F910222621272004
:100AB00000F0E1F909E020220621272000F0EEF9FC
:100AC00028222621272000F0D6F9BB7C7A68D2782C
:100AD00011464A4A9B000B4452F823301A4608211B
:100AE000272000F0F7F97B685B89002B03D17B6836
:100AF00041F241025A817B685B891A4620212720F6
:100B000000F0CCF93E4B1B681A460C21232000F064
:100B1000E1F9BB7C3A4A5B0013449B881A460421E6
:100B2000232000F0BBF97B689B79002B0DD07B68FC
:100B3000DB791A46334B9B5C1A460021212000F0DA
:100B40009AF90323FB750123BB75FB7C03F00F02AD
:100B5000FB7C1B01DBB21A437B685B789B0403F4CC
:100B600040231A43FB7D1B0503F440131A43BB7D4E
:100B70005B0403F400331A437B681B799B0503F085
:100B8000F8631A437B685B79DB061343FB60FA6802
:100B900000211F2000F09EF97B689A787B685B78C3
:100BA0001343DBB219047B68DB795A030B4B1B68D8
:100BB0000A43DA60094B1B68DB681A4600210820EB
:100BC00000F088F9422200210D2000F054F900BF06
:100BD0001837BD4680BD00BF701E03080400002406
:100BE000F01D0308101E0308281E0308301E03080A
:100BF000F81D0308401E03084C1E0308501E03087E
:100C0000341E03083C1E030880B582B000AF0346C3
:100C10003960FB801346BB80BA88FB881344B3F568
:100C2000806F09DCFB88023B1A46B9883B680920C3
:100C300000F028F8002301E04FF0FF331846083792
:100C4000BD4680BD80B584B000AF03463A60FB80EE
:100C50000B46BB800A4B1B68DA68FB881A43BB88CB
:100C60009B051A433B68DB031343FB60FA680021D2
:100C7000082000F02FF900BF1037BD4680BD00BF2F
:100C80000400002480B586B000AFBA607B600346E4
:100C9000FB810B46BB8100237B61BB89002B0DD1FF
:100CA000FB89DAB27B69591C796162F07F02D2B2AA
:100CB00007F118010B4403F8082C33E0FB89DAB282
:100CC0007B69591C796162F03F02D2B207F11801C9
:100CD0000B4403F8082CBB897F2B0AD87B695A1C6C
:100CE0007A61BA89D2B207F118010B4403F8082CD3
:100CF00018E0BB89DAB27B69591C796162F07F0226
:100D0000D2B207F118010B4403F8082CBB89DB09A8
:100D100099B27B695A1C7A61CAB207F118010B4477
:100D200003F8082C7B6998B207F110017B68BA6858
:100D300000F0B4FA00BF1837BD4680BD80B586B05C
:100D400000AFBA607B600346FB810B46BB8100238A
:100D50007B61BB89002B0AD17B695A1C7A61FA89B5
:100D6000D2B207F118010B4403F8082C33E0FB89D9
:100D7000DAB27B69591C796142F04002D2B207F1C4
:100D800018010B4403F8082CBB897F2B0AD87B6918
:100D90005A1C7A61BA89D2B207F118010B4403F8E0
:100DA000082C18E0BB89DAB27B69591C796162F0C2
:100DB0007F02D2B207F118010B4403F8082CBB895B
:100DC000DB0999B27B695A1C7A61CAB207F1180132
:100DD0000B4403F8082C7B6998B207F110017B687B
:100DE000BA6800F08FFA00BF1837BD4680BD80B5E5
:100DF00086B000AF7860396000237B617B6898B271
:100E00003B6899B207F10C030422FFF797FF032315
:100E10003B610BE07B691B0207F10C013A690A4454
:100E2000127813447B613B69013B3B613B69002BBA
:100E3000F0DA7B6918461837BD4680BD80B584B0AE
:100E400000AF786039600023FB817B6898B23B6813
:100E500099B207F10C030222FFF770FF7B7B9BB274
:100E60001B029AB23B7B9BB21344FB81FB89184661
:100E70001037BD4680BD80B584B000AFF860B96062
:100E80001346FB71FB6898B2BB6899B2FB1D012247
:100E9000FFF7F8FE00BF1037BD4680BD80B586B0B5
:100EA00000AFF860B9601346FB80FB88DBB23B758E
:100EB000FB881B0A9BB2DBB27B75FB6898B2BB68F0
:100EC00099B207F114030222FFF7DCFE00BF1837C6
:100ED000BD4680BD80B586B000AFF860B9607A606D
:100EE00000237B610DE07B68D9B207F110027B69BA
:100EF00013440A461A707B681B0A7B607B690133C6
:100F00007B617B69032BEEDDFB6898B2BB6899B20D
:100F100007F110030422FFF7B5FE00BF1837BD46E6
:100F200080BD80B584B000AF0346FB80FB881A46C5
:100F300004212D20FFF7B2FF032206212D20FFF709
:100F40009AFF002206212D20FFF795FF0A212D2070
:100F5000FFF74DFFF860FB6818461037BD4680BDAF
:100F600080B500AF002202212C20FFF784FF02226F
:100F700002212C20FFF77FFF00BF80BD80B582B02B
:100F800000AF78606D2240F606012E20FFF773FF58
:100F90007B68002B07D040F2076241F606012E2045
:100FA000FFF77CFF06E041F2076241F606012E20C2
:100FB000FFF774FF00BF0837BD4680BD80B500AFA6
:100FC0000E2000F00FF84FF4004206212D20FFF70D
:100FD00065FF012000F056F9012000F003F800BF82
:100FE00080BD000080B584B000AF786007F10C03CD
:100FF000022200213620FFF7A1FE7B680E2B76D857
:1010000001A252F823F000BF551000084510000857
:101010006B100008EF100008EF100008EF10000838
:10102000EF10000881100008A1100008EF10000860
:10103000EF100008B7100008C3100008CF10000818
:10104000E510000800233B737B7B23F00103DBB238
:101050007B734DE03B7B5BB223F003035BB243F059
:1010600001035BB2DBB23B7342E03B7B5BB223F03C
:1010700003035BB243F002035BB2DBB23B7337E0C6
:101080003B7B5BB223F04C035BB243F048035BB2A3
:10109000DBB23B737B7B63F07F03DBB27B7327E0C8
:1010A0003B7B23F04C03DBB23B737B7B03F07F0382
:1010B000DBB27B731CE07B7B43F00203DBB27B7310
:1010C00016E07B7B23F00203DBB27B7310E03B7BFB
:1010D0005BB223F030035BB243F020035BB2DBB2C0
:1010E0003B7305E001233B7303237B7300E000BFE8
:1010F00007F10C03012200213620FFF7C3FD07F1A1
:101100000C030133012201213620FFF7BBFD00BF94
:101110001037BD4680BD00BF80B500AF0020FFF78F
:1011200061FF002204213620FFF7B8FE00BF80BD1A
:1011300080B584B000AF0346FB710023FB60002341
:10114000FB7200233B81FB7903F00203002B05D0E7
:101150008023FB721C4B1B6801225A75FB7903F03C
:101160000103002B20D0FB7A43F00603FB72FB7ACD
:101170001A4600210D20FFF77EFE03210F20FFF706
:101180005DFE03463B813B8903F48163002B02D162
:101190000023FB6012E0402200210D20FFF76BFED0
:1011A0004FF0FF33FB6009E0FB7A43F00203FB7270
:1011B000FB7A1A4600210D20FFF75DFEFB681846FA
:1011C0001037BD4680BD00BF0400002480B500AFCD
:1011D000FFF7A2FF002200212C20FFF75FFE002274
:1011E00006212C20FFF747FEFFF7BAFE002203215D
:1011F0003620FFF740FE012000F044F8F0220321E2
:101200003620FFF738FE034B1B6800225A7500BFDB
:1012100080BD00BF0400002480B584B000AF034649
:10122000FB7197F9073003F01F035BB243F06003D3
:101230005BB2FB73FB7B1A460E212B20FFF71BFED4
:1012400000BF1037BD4680BD80B582B000AF00F052
:10125000BBF903467B607B68002B01D000F0A6F948
:101260007B6818460837BD4680BD80B582B000AFA8
:1012700078607B68002B01D000F09FF900BF083731
:10128000BD4680BD80B582B000AF7860786800F060
:10129000E7F800BF0837BD4680BD00002DE9704F5C
:1012A00083468A4690469946144DFFF7CDFF064681
:1012B000284618F09DFF01280446F9D1002210218C
:1012C0000F4811F05DFE5A4651464FF0FF330B4870
:1012D00018F0BEF84FF0FF3349461FFA88F207486E
:1012E00018F0B6F822461021054811F049FE3046A4
:1012F000FFF7BBFF0020BDE8708F00BFACB6002435
:10130000000402582DE9784781460C4690461D4658
:10131000DFF870A0FFF798FF0646504618F068FF08
:101320000128FAD100221021154811F029FEB9F147
:10133000000F0CD0DFF84CA0A144214601344FF03F
:10134000FF330122504618F083F84C45F5D11FFABF
:1013500088F8DFF830904FF0FF3342462946484680
:1013600018F068FA04460028F5D10122102104483B
:1013700011F006FE3046FFF778FF2046BDE878877B
:1013800000040258ACB6002480B483B000AF03461A
:10139000FB80B7F90630002B0BDBFB8803F01F0244
:1013A0000749B7F906305B09012000FA02F241F85B
:1013B000232000BF0C37BD465DF8047B704700BF9B
:1013C00000E100E080B483B000AF0346FB80B7F9D2
:1013D0000630002B12DBFB8803F01F020A49B7F925
:1013E00006305B09012000FA02F2203341F8232085
:1013F000BFF34F8F00BFBFF36F8F00BF00BF0C372D
:10140000BD465DF8047B704700E100E080B485B024
:1014100000AF78600023FB6012E00023BB6004E0B3
:1014200000BF00BFBB680133BB60BB68012BD4BFEA
:1014300001230023DBB2002BF2D1FB680133FB60F8
:10144000FB687A689A428CBF01230023DBB2002B31
:10145000E3D100BF00BF1437BD465DF8047B704781
:1014600080B582B000AF7860786810F0B3FE00BF3E
:101470000837BD4680BD000080B483B000AF7860FF
:101480000B4A7B685B0952F823207B6803F01F033B
:1014900022FA03F303F00103002B14BF01230023FE
:1014A000DBB218460C37BD465DF8047B704700BFC1
:1014B00000E100E080B586B000AF4FF480737B6040
:1014C0001123BB6000233B613B1D19460A4811F004
:1014D0009DFA00224FF48071074811F051FD012060
:1014E000FFF794FF002000F009F80220FFF7B8FF93
:1014F00000BF1837BD4680BD0020025880B588B0B7
:1015000000AF78607B68002B16D04FF48073FB60CF
:101510004FF488133B6100237B6107F10C031946EC
:10152000134811F073FA062010F07AFF002205210B
:10153000062010F05BFF17E0062010F07FFF4FF44D
:101540008073FB6011233B6100237B610223BB613D
:1015500007F10C031946064811F058FA01224FF41E
:101560008071034811F00CFD00BF2037BD4680BDDF
:101570000020025880B500AF044B4FF0C042DA6142
:10158000024817F05FFE00BF80BD00BFACB600246C
:1015900080B500AF044B4FF04052DA61024817F0BB
:1015A00051FE00BF80BD00BFACB6002480B500AFC7
:1015B0001720FFF707FF00BF80BD80B500AF1720E1
:1015C000FFF7E2FE00BF80BD80B500AF1720FFF738
:1015D00053FF0346184680BD80B483B000AF7860E7
:1015E000044A7B68136000BF0C37BD465DF8047B7E
:1015F000704700BFF402002480B584B000AF78606B
:101600007868FEF76DFE0346FB81094B1868FA897E
:101610004FF0FF33796819F00BFA0346002B01D124
:10162000FB8901E04FF0FF3318461037BD4680BDFF
:10163000F402002480B586B000AF00F0A9FC694B2D
:101640005B6903F40033002B1BD1BFF34F8F00BF46
:10165000BFF36F8F00BF634B0022C3F85022BFF36C
:101660004F8F00BFBFF36F8F00BF5E4B5B695D4A5A
:1016700043F400335361BFF34F8F00BFBFF36F8F4D
:1016800000E000BF574B5B6903F48033002B38D177
:10169000544B0022C3F88420BFF34F8F00BF514B3F
:1016A000D3F880303B613B695B0BC3F30E03FB60F7
:1016B0003B69DB08C3F30903BB60FB685A0143F6CF
:1016C000E0731340BA68920746491343C1F8603289
:1016D000BB685A1EBA60002BEFD1FB685A1EFA6035
:1016E000002BE5D1BFF34F8F00BF3E4B5B693D4AF6
:1016F00043F480335361BFF34F8F00BFBFF36F8F4D
:1017000000E000BF4FF6FF737B6100BF364B1B68E4
:1017100003F40043002B04D07B695A1E7A61002B2E
:10172000F4DC7B69002B01DA00F07CFC10F0F6FCA5
:1017300000F06AF82C4BD3F8E0302B4A43F00073EA
:10174000C2F8E030284BD3F8E03003F000737B6040
:101750007B68002011F02EFC0021002011F044FCD9
:101760004FF6FF737B6100BF1F4B1B6803F4004300
:10177000002B04D17B695A1E7A61002BF4DC7B6953
:10178000002B01DA00F04EFC00F0B8FA00F090F9FE
:1017900000F05EFA00F008F900F0C6F800F0E6F894
:1017A00000F00AFA00F0B2F904F09BFF0020FFF706
:1017B000A5FE0E48FFF710FF0AF0B4FC0C4A00210A
:1017C0000C480AF0F9FC03460B4A13600B4A00214F
:1017D0000B480AF0F1FC03460A4A13600AF0C6FC03
:1017E000FEE700BF00ED00E00044025844B80024CA
:1017F000A41E0308791F000898B90024C81E030816
:10180000EF660008E8B7002480B59CB000AF07F190
:1018100024034C22002118462EF084FD3B1D20227B
:10182000002118462EF07EFD042014F043F9002319
:101830003B603A4BDB6A394A23F00103D362374BF2
:10184000DB6A03F001033B60354B9B69344A43F488
:1018500040439361324B9B6903F440433B603B68D8
:1018600000BF2F4B9B6903F40053B3F5005FF8D121
:101870002C4B9B6A23F003032A4A43F00203936232
:1018800023237B624FF48033BB6201233B634023FD
:101890007B630123FB630223BB640223FB640523F8
:1018A0003B65A0237B650223BB650423FB65022304
:1018B0003B6608237B660023BB660023FB6607F1BB
:1018C0002403184615F042F80346002B01D000F01F
:1018D000A9FB3F237B600323BB600023FB6008233D
:1018E0003B6140237B614023BB614FF48063FB611C
:1018F00040233B623B1D0221184615F053FC034672
:10190000002B01D000F08EFB4FF48022002100203C
:1019100015F0FEFD00BF7037BD4680BD00040058C5
:10192000004802580044025880B500AF0D4B0E4AE3
:101930001A600C4B00221A710A4B00225A71094B93
:1019400000225A61074B00229A61064B01221A625B
:10195000044810F0FDFD0346002B01D000F062FBAF
:1019600000BF80BDECB70024004C025880B500AF2A
:101970000B4B0C4A1A600A4B4FF440325A60084B2A
:1019800002229A60064B0022DA60054810F0CAFE77
:101990000346002B01D000F045FB00BF80BD00BF17
:1019A00034B700240010005280B58EB000AF00F0B4
:1019B0009BFB3B1D3422002118462EF0B3FC3A4B12
:1019C0003A4A1A60384B00225A60374B00229A601C
:1019D000354B0022DA60344B00221A61324B282248
:1019E0005A61314B09229A612F4B3522DA612E4B15
:1019F0000B221A622C4B40F215225A622A4B40F2FB
:101A00001B129A62284B40F23522DA62264B40F2D2
:101A10001D121A63244B002283F83420224B00222B
:101A200083F83520204B002283F836201E4812F020
:101A300049F90346002B01D000F0F4FA00237B6043
:101A40004FF4F073BB600023FB604FF488733B617D
:101A500002237B61FF23BB610023FB614FF48063A2
:101A60003B6205237B624FF05043BB624FF4F0733F
:101A7000FB624FF488733B63002387F83430002304
:101A800087F83530002387F836303B1D0022194691
:101A9000054812F09FFA0346002B01D000F0C2FA6D
:101AA00000BF3837BD4680BD04B60024001000508A
:101AB00080B500AF124B134A1A60114B01225A60D5
:101AC0000F4B01229A600E4B1022DA600C4B1A2247
:101AD0001A610B4B4FF400725A61094B00229A6154
:101AE000074B40221A62064814F04EF80346002BBA
:101AF00001D000F097FA044800F06AFB00BF80BDF7
:101B00009CB70024005000522520000880B500AF8B
:101B1000274B284A1A60264B4FF480025A60244B08
:101B200000229A60224B0722DA60214B00221A61C0
:101B30001F4B00225A611E4B4FF080629A611C4B72
:101B40004FF0C042DA611A4B00221A62184B002291
:101B50005A62174B00229A62154B0022DA62144B2C
:101B60004FF080425A63124B00229A63104B0022BE
:101B7000DA630F4B00221A640D4B00225A640C4B9F
:101B800000229A640A4B0022DA64094B00221A658B
:101B9000074B00225A65064B00229A65044817F04D
:101BA00051FB0346002B01D000F03CFA00BF80BD82
:101BB000ACB600240038004080B500AF224B234A69
:101BC0001A60214B4FF4E1325A601F4B00229A6099
:101BD0001D4B0022DA601C4B00221A611A4B0C22AA
:101BE0005A61194B00229A61174B0022DA61164B99
:101BF00000221A62144B00225A62134B00229A628E
:101C0000114818F0C5FE0346002B01D000F00AFA77
:101C100000210D4819F0F0FE0346002B01D000F022
:101C200001FA0021084819F025FF0346002B01D0D6
:101C300000F0F8F9044819F0A6FE0346002B01D085
:101C400000F0F0F900BF80BD44B800240048004017
:101C500080B588B000AF3B1D00221A605A609A60C0
:101C6000DA601A615A619A61214B224A1A60204B4C
:101C700001225A601E4B00229A601D4B0422DA603A
:101C80001B4B10221A611A4B40225A61184B4FF419
:101C900080729A61164B0022DA61154B4FF4006294
:101CA0001A62134B4FF480525A62114B00229A620F
:101CB00002237B600623BB600423FB6006233B6199
:101CC00002237B610223BB610223FB613B1D19469A
:101CD000074817F001FA0346002B01D000F0A2F9E3
:101CE000054800F096FA00BF2037BD4680BD00BF12
:101CF00010B80024404100522520000880B590B063
:101D000000AF07F12C0300221A605A609A60DA6073
:101D10001A61924BD3F8E030904A43F48063C2F8E2
:101D2000E0308E4BD3F8E03003F48063BB62BB6AD3
:101D30008A4BD3F8E030894A43F04003C2F8E030E0
:101D4000864BD3F8E03003F040037B627B6A834B21
:101D5000D3F8E030814A43F48073C2F8E0307F4B1F
:101D6000D3F8E03003F480733B623B6A7B4BD3F8DB
:101D7000E0307A4A43F01003C2F8E030774BD3F8F2
:101D8000E03003F01003FB61FB69744BD3F8E030E3
:101D9000724A43F00203C2F8E030704BD3F8E030EF
:101DA00003F00203BB61BB696C4BD3F8E0306B4AB4
:101DB00043F40073C2F8E030684BD3F8E03003F42A
:101DC00000737B617B69654BD3F8E030634A43F075
:101DD0000803C2F8E030614BD3F8E03003F00803A9
:101DE0003B613B695D4BD3F8E0305C4A43F0040350
:101DF000C2F8E030594BD3F8E03003F00403FB6045
:101E0000FB68564BD3F8E030544A43F00103C2F864
:101E1000E030524BD3F8E03003F00103BB60BB6805
:101E20004E4BD3F8E0304D4A43F02003C2F8E03087
:101E30004A4BD3F8E03003F020037B607B68474BCC
:101E4000D3F8E030454A43F08003C2F8E030434B1A
:101E5000D3F8E03003F080033B603B68012210219F
:101E60003F4811F08DF800224FF480713D4811F089
:101E700087F801224FF400513A4811F081F801220D
:101E80000421394811F07CF81023FB6201233B63E5
:101E900000237B630323BB6307F12C0319463048FF
:101EA00010F0B4FD0823FB624FF488133B63022358
:101EB0007B6307F12C0319462C4810F0A7FD4FF463
:101EC0000053FB6200233B6302237B6307F12C0377
:101ED0001946274810F09AFD4FF48073FB620123E6
:101EE0003B6300237B630023BB6307F12C0319468C
:101EF0001C4810F08BFD4FF48073FB6202233B63A0
:101F000000237B630023BB630023FB6307F12C03E7
:101F10001946184810F07AFD4FF40053FB62012374
:101F20003B6300237B630123BB6307F12C0319464A
:101F30000C4810F06BFD0423FB6201233B6300237C
:101F40007B630123BB6307F12C031946064810F09D
:101F50005DFD00BF4037BD4680BD00BF0044025854
:101F600000040258002002580024025800100258B1
:101F7000000802580000025880B582B000AF7860B7
:101F800000F05AFF00F054F801200AF0A7F9FBE72F
:101F900080B584B000AF3B4600221A605A609A6058
:101FA000DA6010F059FA01233B7000237B704FF088
:101FB00050437B6013233B7200237B720023BB7270
:101FC0000323FB7201233B7300237B730123BB7349
:101FD0000123FB733B46184610F076FA01237B7011
:101FE0004FF010437B601A233B723B46184610F0BB
:101FF0006BFA042010F048FA00BF1037BD4680BDD0
:1020000080B582B000AF78607B681B68044A934259
:1020100001D110F0BFF800BF0837BD4680BD00BF3A
:102020000010004080B400AF72B600BFFEE70000B1
:1020300080B500AF2448FFF7DFFA2448FFF7DCFA49
:10204000FFF738FAFFF796FA0020FEF71DFB03466C
:10205000B3F1FF3F03D11E48FFF7CEFAFEE7FFF7CB
:1020600097FA1C48FEF766FC00221B490C20FEF77D
:10207000CBFD002200210C20FEF7E4FD1748FFF7FE
:10208000BBFA0020FFF754F81548FFF7B5FA00BF78
:1020900000210F20FEF7ABFE034603F08003002B68
:1020A000F6D01048FFF7A8FA802200210F20FEF793
:1020B00011FF4FF47A70FFF7D3F9074B5B780133C8
:1020C000DAB2054B5A70CFE7341303084413030800
:1020D00048130308080000241400002454130308C4
:1020E000641303087013030880B58CB000AF364B3F
:1020F000D3F8E430344A43F00803C2F8E430324BFA
:10210000D3F8E43003F00803BB61BB692E4BD3F86E
:10211000E0302D4A43F48073C2F8E0302A4BD3F804
:10212000E03003F480737B617B69274BD3F8E030A8
:10213000254A43F40073C2F8E030234BD3F8E03073
:1021400003F400733B613B691F4BD3F8E0301E4A38
:1021500043F48063C2F8E0301B4BD3F8E03003F463
:102160008063FB60FB68184BD3F8E030164A43F0FD
:102170008003C2F8E030144BD3F8E03003F0800362
:10218000BB60BB68104BD3F8E0300F4A43F0080344
:10219000C2F8E0300C4BD3F8E03003F008037B606A
:1021A0007B688023FB6101233B6207F11C03194616
:1021B000064810F02BFC01228021044810F0E0FEBC
:1021C00000BF3037BD4680BD00440258000C0258A5
:1021D00080B584B000AF786003233B7301237B7329
:1021E0004023BB7307F10C03194600200EF050FF8B
:1021F0000346002B01D07B68984700200FF022F89F
:102200000346002B01D07B68984700BF1037BD46BE
:1022100080BD80B582B000AF786000200FF080FBF9
:1022200000200FF021FB0346002B01D07B6898476C
:1022300000BF0837BD4680BD80B582B000AF0C4BF3
:10224000D3F8F4300A4A43F00203C2F8F430084BE2
:10225000D3F8F43003F002037B607B6800220F2187
:102260006FF0010010F0C2F800BF0837BD4680BD16
:102270000044025880B485B000AF78607B681B686A
:102280000B4A93420ED10B4BD3F8E030094A43F48A
:102290000023C2F8E030074BD3F8E03003F400230A
:1022A000FB60FB6800BF1437BD465DF8047B7047D8
:1022B000004C02580044025880B584B000AF7860EA
:1022C0007B681B680E4A934216D10E4BD3F8D4306C
:1022D0000C4A43F01003C2F8D4300A4BD3F8D43080
:1022E00003F01003FB60FB68002205215A2010F068
:1022F0007DF85A2010F094F800BF1037BD4680BD1D
:10230000001000520044025880B5BCB000AF7860A5
:1023100007F1DC0300221A605A609A60DA601A61E1
:1023200007F12003BC22002118462DF0FBFF7B683B
:102330001B68684A934240F0C8804FF000533B62EC
:1023400005237B64A023BB640223FB6402233B655B
:1023500053237B654FF40063BB650023FB650023BB
:102360003B6607F12003184615F054FB0346002B8B
:1023700001D0FFF757FE584BD3F8E430564A43F0EC
:102380000803C2F8E430544BD3F8E43003F00803F8
:10239000FB61FB69504BD3F8E0304F4A43F4806354
:1023A000C2F8E0304C4BD3F8E03003F48063BB61FB
:1023B000BB69494BD3F8E030474A43F48073C2F815
:1023C000E030454BD3F8E03003F480737B617B69E8
:1023D000414BD3F8E030404A43F40073C2F8E03098
:1023E0003D4BD3F8E03003F400733B613B693A4B5B
:1023F000D3F8E030384A43F08003C2F8E030364B7F
:10240000D3F8E03003F08003FB60FB68FC23C7F8DF
:10241000DC300223C7F8E0300023C7F8E4300223A1
:10242000C7F8E8300E23C7F8EC3007F1DC03194693
:102430002A4810F0EBFA4DF20323C7F8DC300223F0
:10244000C7F8E0300023C7F8E4300223C7F8E830CB
:102450000E23C7F8EC3007F1DC031946204810F0D2
:10246000D5FA4FF6FB73C7F8DC300223C7F8E0302B
:102470000023C7F8E4300223C7F8E8300E23C7F87A
:10248000EC3007F1DC031946164810F0BFFA4FF4A0
:102490000073C7F8DC300223C7F8E0300023C7F828
:1024A000E4300223C7F8E8300E23C7F8EC3007F118
:1024B000DC0319460C4810F0A9FA00220521582027
:1024C0000FF094FF58200FF0ABFF00BFF037BD4670
:1024D00080BD00BF00100050004402580028025880
:1024E0000020025800240258001C025880B5BCB0DD
:1024F00000AF786007F1DC0300221A605A609A602E
:10250000DA601A6107F12003BC22002118462DF081
:1025100009FF7B681B68764A934240F0E4804FF0E5
:1025200000733B620023BB6607F12003184615F0D9
:1025300071FA0346002B01D0FFF774FD6D4BD3F801
:10254000D4306C4A43F48043C2F8D430694BD3F89A
:10255000D43003F48043FB61FB69664BD3F8E03071
:10256000644A43F04003C2F8E030624BD3F8E030F5
:1025700003F04003BB61BB695E4BD3F8E0305D4ABA
:1025800043F02003C2F8E0305A4BD3F8E03003F0B8
:1025900020037B617B69574BD3F8E030554A43F009
:1025A0008003C2F8E030534BD3F8E03003F08003EF
:1025B0003B613B694F4BD3F8E0304E4A43F0080390
:1025C000C2F8E0304B4BD3F8E03003F00803FB6077
:1025D000FB684FF48443C7F8DC300223C7F8E030CF
:1025E0000023C7F8E4300323C7F8E8300923C7F80D
:1025F000EC3007F1DC0319463F4810F007FA40239E
:10260000C7F8DC300223C7F8E0300123C7F8E43014
:102610000323C7F8E8300A23C7F8EC3007F1DC03DE
:102620001946354810F0F2F94FF49863C7F8DC30DA
:102630000223C7F8E0300023C7F8E4300323C7F8CB
:10264000E8300923C7F8EC3007F1DC0319462B48C2
:1026500010F0DCF94FF40073C7F8DC300223C7F840
:10266000E0300023C7F8E4300323C7F8E8300A233A
:10267000C7F8EC3007F1DC031946204810F0C6F922
:102680000C23C7F8DC300223C7F8E0300023C7F87A
:10269000E4300323C7F8E8300923C7F8EC3007F12A
:1026A000DC031946164810F0B1F94FF40063C7F87F
:1026B000DC300223C7F8E0300023C7F8E4300323FE
:1026C000C7F8E8300923C7F8EC3007F1DC031946F6
:1026D0000C4810F09BF9002205215C200FF086FECB
:1026E0005C200FF09DFE00BFF037BD4680BD00BFEF
:1026F00000500052004402580018025800140258BA
:10270000001C0258000C025880B5BAB000AF7860C7
:1027100007F1D40300221A605A609A60DA601A61E5
:1027200007F11803BC22002118462DF0FBFD7B6841
:102730001B68494A934240F08B804FF48053BB6141
:1027400000237B6707F11803184615F063F9034669
:10275000002B01D0FFF766FC404BD3F8E8303F4A2E
:1027600043F48043C2F8E8303C4BD3F8E83003F43C
:1027700080437B617B69394BD3F8E030374A43F0C3
:102780000803C2F8E030354BD3F8E03003F008031B
:102790003B613B69314BD3F8E030304A43F48073FE
:1027A000C2F8E0302D4BD3F8E03003F48073FB60C7
:1027B000FB682A4BD3F8E030284A43F00203C2F802
:1027C000E030264BD3F8E03003F00203BB60BB6877
:1027D0000823C7F8D4300223C7F8D8300023C7F83D
:1027E000DC300323C7F8E0300523C7F8E43007F1F5
:1027F000D40319461A4810F009F90423C7F8D43055
:102800000223C7F8D8300023C7F8DC300323C7F809
:10281000E0300523C7F8E43007F1D4031946114826
:1028200010F0F4F84FF40043C7F8D4300223C7F88F
:10283000D8300023C7F8DC300323C7F8E030052385
:10284000C7F8E43007F1D4031946074810F0DEF862
:1028500000BFE837BD4680BD003800400044025844
:10286000000C0258002002580004025880B5B8B08D
:1028700000AF786007F1CC0300221A605A609A60BA
:10288000DA601A6107F11003BC22002118462DF00E
:1028900049FD7B681B68254A934242D102233B6174
:1028A0000023C7F8843007F11003184615F0B2F87A
:1028B0000346002B01D0FFF7B5FB1D4BD3F8E830E2
:1028C0001B4A43F48023C2F8E830194BD3F8E830B0
:1028D00003F48023FB60FB68154BD3F8E030144A07
:1028E00043F00203C2F8E030114BD3F8E03003F0BC
:1028F0000203BB60BB684FF44063C7F8CC300223CF
:10290000C7F8D0300023C7F8D4300323C7F8D83035
:102910000723C7F8DC3007F1CC031946054810F04F
:1029200075F800BFE037BD4680BD00BF00480040DD
:10293000004402580004025880B5B6B000AF07F159
:10294000C40300221A605A609A60DA601A614F4B21
:102950001B68002B40F096804C4B01221A6007F157
:102960000803BC22002118462DF0DCFC4FF08073D8
:10297000BB600023FB6407F10803184615F04AF812
:102980000346002B01D0FFF74DFB414BD3F8D43069
:102990003F4A43F48053C2F8D4303D4BD3F8D4308F
:1029A00003F480537B607B684FF68373C7F8C430B1
:1029B0000223C7F8C8300023C7F8CC300323C7F878
:1029C000D0300C23C7F8D43007F1C403194631487E
:1029D00010F01CF848F23313C7F8C4300223C7F8CC
:1029E000C8300023C7F8CC300323C7F8D0300C23FD
:1029F000C7F8D43007F1C4031946274810F006F889
:102A00004CF20373C7F8C4300223C7F8C830002360
:102A1000C7F8CC300323C7F8D0300C23C7F8D43024
:102A200007F1C40319461D480FF0F0FF4FF63F03AE
:102A3000C7F8C4300223C7F8C8300023C7F8CC3029
:102A40000323C7F8D0300C23C7F8D43007F1C403F0
:102A5000194613480FF0DAFFE023C7F8C430022309
:102A6000C7F8C8300023C7F8CC300323C7F8D030EC
:102A70000C23C7F8D43007F1C403194609480FF0F6
:102A8000C5FF00E000BFD837BD4680BDF802002476
:102A9000004402580010025800180258000C025856
:102AA00000140258001C025880B582B000AF786054
:102AB000FFF742FF00BF0837BD4680BD80B500AFBD
:102AC000144B1B68002B23D1124B01221A60124BAE
:102AD000D3F8D430104A23F48053C2F8D4304FF6E0
:102AE00083710E4810F042F948F233110C4810F08F
:102AF0003DF94CF203710B4810F038F94FF63F01E5
:102B0000094810F033F9E021084810F02FF900E0EF
:102B100000BF80BDFC02002400440258001002588F
:102B200000180258000C025800140258001C0258E9
:102B300080B582B000AF7860FFF7C0FF00BF0837F4
:102B4000BD4680BD80B590B000AF78607B680F2B2C
:102B500027D80022796836200FF048FC36200FF085
:102B60005FFC294A7B681360284BD3F8E830274A7A
:102B700043F01003C2F8E830244BD3F8E83003F0F8
:102B80001003FB60FB6807F1100207F11403114604
:102B9000184614F0FDFEBB6ABB63BB6B002B06D16D
:102BA00001E001232BE014F0C7FEF86304E014F009
:102BB000C3FE03465B00FB63FB6B154AA2FB0323CA
:102BC0009B0C013B7B63134B134A1A60114B40F281
:102BD000E732DA600F4A7B6B53600E4B00221A61BA
:102BE0000C4B00229A600B4817F0F9FB0346002BB0
:102BF00004D1084817F054FC034600E001231846AE
:102C00004037BD4680BD00BFBC01002400440258CF
:102C100083DE1B439CB900240010004080B400AF49
:102C2000FEE780B400AFFEE780B400AFFEE780B4FB
:102C300000AFFEE780B400AFFEE780B400AF00BF96
:102C4000BD465DF8047B704780B500AF024817F0C1
:102C50009FFC00BF80BD00BF9CB9002480B500AFC1
:102C6000024811F0FFF800BF80BD00BF04B6002489
:102C700080B500AF02480FF0B9FD00BF80BD00BFB6
:102C800034B7002480B500AF024812F0F1FF00BF56
:102C900080BD00BF9CB7002480B500AF024811F092
:102CA00063FE00BF80BD00BFB8BC002480B400AF8D
:102CB00001231846BD465DF8047B704780B582B09D
:102CC00000AF786039602DF0D3FA034616221A60FF
:102CD0004FF0FF3318460837BD4680BD80B582B03F
:102CE00000AF78604FF0FF317868FFF7E7FFFEE74D
:102CF00080B586B000AFF860B9607A6000237B6170
:102D00000AE0AFF300800146BB685A1CBA60CAB241
:102D10001A707B6901337B617A697B689A42F0DBC8
:102D20007B6818461837BD4680BD80B586B000AFB9
:102D3000F860B9607A6000237B6109E0BB685A1CC7
:102D4000BA601B781846AFF300807B6901337B6162
:102D50007A697B689A42F1DB7B6818461837BD4672
:102D600080BD80B483B000AF78604FF0FF33184669
:102D70000C37BD465DF8047B704780B483B000AF6C
:102D8000786039603B684FF400525A60002318465F
:102D90000C37BD465DF8047B704780B483B000AF4C
:102DA0007860012318460C37BD465DF8047B7047F8
:102DB00080B485B000AFF860B9607A60002318462F
:102DC0001437BD465DF8047B7047000080B586B0BF
:102DD00000AF7860144A154BD31A7B617B693B6165
:102DE000134B1B68002B02D1114B124A1A60104B77
:102DF0001A687B6813443A699A4207D22DF038FA70
:102E000003460C221A604FF0FF3309E0084B1B68A1
:102E1000FB60074B1A687B681344054A1360FB6824
:102E200018461837BD4680BD000008240010000079
:102E300000030024A0C3002480B500AF0022134982
:102E4000134800F081FB0346002B01D0FFF7EAF89E
:102E500010490F4800F0A8FB0346002B01D0FFF7F4
:102E6000E1F80D490A4801F097FF0346002B01D015
:102E7000FFF7D8F8064800F0BEFB0346002B01D050
:102E8000FFF7D0F812F070FE00BF80BD20000024D4
:102E9000E8B90024700000245801002480B5B8B0BF
:102EA00000AF786007F1CC0300221A605A609A6084
:102EB000DA601A6107F11003BC22002118462DF0D8
:102EC00031FA7B681B682B4A93424ED14FF4802322
:102ED0003B614FF44013C7F8943007F110031846D4
:102EE00014F098FD0346002B01D0FFF79BF812F079
:102EF0003BFE214BD3F8E0301F4A43F00103C2F8F8
:102F0000E0301D4BD3F8E03003F00103FB60FB68B9
:102F10004FF4C053C7F8CC300223C7F8D030002399
:102F2000C7F8D4300023C7F8D8300A23C7F8DC30FC
:102F300007F1CC03194611480FF068FD0E4BD3F88A
:102F4000D8300D4A43F00063C2F8D8300A4BD3F8AA
:102F5000D83003F00063BB60BB6800220521652008
:102F60000FF044FA65200FF05BFA00BFE037BD4672
:102F700080BD00BF00000840004402580000025815
:102F800080B582B000AF78607B68D3F804247B689A
:102F900003F571731946104600F078FB00BF08373F
:102FA000BD4680BD80B582B000AF78600B46FB7037
:102FB0007B68D3F80404FA7879681346DB009B1A1F
:102FC0009B000B4403F502731A68FB78194600F066
:102FD000B2FB00BF0837BD4680BD80B582B000AFF0
:102FE00078600B46FB707B68D3F80404FA78796844
:102FF0001346DB009B1A9B000B4448331A68FB788E
:10300000194600F0FBFB00BF0837BD4680BD80B508
:1030100082B000AF78607B68D3F80434184600F0C3
:103020000FFD00BF0837BD4680BD80B584B000AF3E
:1030300078600123FB737B68DB68002B02D10023DF
:10304000FB7308E07B68DB68022B02D10123FB7372
:1030500001E0FEF7E7FF7B68D3F80434FA7B114602
:10306000184600F0AFFC7B68D3F80434184600F033
:103070005BFC00BF1037BD4680BD000080B582B04C
:1030800000AF78607B68D3F80434184600F0AAFCDF
:103090007B681B6803F560631B687A68126802F539
:1030A000606243F0010313607B681B6A002B05D04C
:1030B000044B1B69034A43F00603136100BF083742
:1030C000BD4680BD00ED00E080B582B000AF786005
:1030D0007B68D3F80434184600F09AFC00BF083728
:1030E000BD4680BD80B582B000AF78600B46FB70F6
:1030F0007B68D3F80434FA781146184600F0E8FCEF
:1031000000BF0837BD4680BD80B582B000AF786093
:103110000B46FB707B68D3F80434FA7811461846E6
:1031200000F0B0FC00BF0837BD4680BD80B582B05E
:1031300000AF78607B68D3F80434184600F0EEFCEA
:1031400000BF0837BD4680BD80B582B000AF786053
:103150007B68D3F80434184600F0EBFC00BF083756
:10316000BD4680BD80B582B000AF78607B681B78BB
:10317000002B3ED1214A7B68C2F804347B681F4A89
:10318000C3F8C4221D4B1E4A1A601C4B09225A6008
:103190001A4B0222DA60194B00221A61174B0222E5
:1031A0009A61164B0022DA61144B00221A62134B0B
:1031B00000225A62114B00229A62104B0022DA62FE
:1031C0000E4B00221A630D4811F077FA0346002BCC
:1031D00001D0FEF727FF8021084812F02AFC402288
:1031E0000021064812F0DEFB80220121034812F084
:1031F000D9FB002318460837BD4680BDB8BC002463
:103200000000084080B584B000AF78600023FB73F5
:103210000023BB737B68D3F8C432184611F071FBEE
:103220000346FB73FB7B184600F062F90346BB7351
:10323000BB7B18461037BD4680BD80B584B000AF5B
:103240007860084611461A460346FB700B46BB7071
:1032500013463B800023FB730023BB737B68D3F8CA
:10326000C402BB783A88F97811F076FF0346FB7305
:10327000FB7B184600F03CF90346BB73BB7B18464A
:103280001037BD4680BD80B584B000AF78600B4676
:10329000FB700023FB730023BB737B68D3F8C4323D
:1032A000FA781146184611F0BFFF0346FB73FB7B0B
:1032B000184600F01DF90346BB73BB7B1846103758
:1032C000BD4680BD80B584B000AF78600B46FB7012
:1032D0000023FB730023BB737B68D3F8C432FA78F6
:1032E0001146184612F051F90346FB73FB7B184652
:1032F00000F0FEF80346BB73BB7B18461037BD4693
:1033000080BD80B584B000AF78600B46FB700023B1
:10331000FB730023BB737B68D3F8C432FA78114681
:10332000184612F078F80346FB73FB7B184600F052
:10333000DFF80346BB73BB7B18461037BD4680BD24
:1033400080B584B000AF78600B46FB700023FB7340
:103350000023BB737B68D3F8C432FA781146184651
:1033600012F0BDF80346FB73FB7B184600F0C0F873
:103370000346BB73BB7B18461037BD4680BD80B487
:1033800085B000AF78600B46FB707B68D3F8C43221
:10339000FB6097F90330002B0BDAFB7803F07F0218
:1033A000F9681346DB009B1A9B000B443E331B78E5
:1033B0000BE0FB7803F07F02F9681346DB009B1AF1
:1033C0009B000B4403F5FF731B7818461437BD466A
:1033D0005DF8047B704780B584B000AF78600B4621
:1033E000FB700023FB730023BB737B68D3F8C432EC
:1033F000FA781146184611F08AFE0346FB73FB7BF0
:10340000184600F075F80346BB73BB7B18461037AF
:10341000BD4680BD80B586B000AFF8607A603B6085
:103420000B46FB720023FB750023BB75FB68D3F8CA
:10343000C402F97A3B687A6811F0A3FF0346FB7572
:10344000FB7D184600F054F80346BB75BB7D18465B
:103450001837BD4680BD80B586B000AFF8607A6091
:103460003B600B46FB720023FB750023BB75FB68BA
:10347000D3F8C402F97A3B687A6811F01FFF03465B
:10348000FB75FB7D184600F033F80346BB75BB7D2A
:1034900018461837BD4680BD80B582B000AF786051
:1034A0000B46FB707B68D3F8C432FA781146184695
:1034B00011F04FFF034618460837BD4680BD000097
:1034C00080B483B000AF7860034B18460C37BD461C
:1034D0005DF8047B704700BF0403002480B483B010
:1034E00000AF786000BF0C37BD465DF8047B7047C5
:1034F00080B485B000AF0346FB710023FB73FB79FA
:10350000032B17D801A252F823F000BF1D35000885
:1035100023350008293500082F3500080023FB73E8
:103520000BE00323FB7308E00123FB7305E0032397
:10353000FB7302E00323FB7300BFFB7B18461437C9
:10354000BD465DF8047B704780B586B000AFF8607B
:10355000B9601346FB71FB68002B01D103231FE008
:10356000FB680022C3F8B822FB680022C3F8C0221F
:10357000FB680022C3F8CC22BB68002B03D0FB6899
:10358000BA68C3F8B422FB68012283F89C22FB6866
:10359000FA791A70F868FFF7E5FD0346FB75FB7DC5
:1035A00018461837BD4680BD80B584B000AF78603E
:1035B00039600023FB813B68002B01D1032316E017
:1035C0007B683A68C3F8B8227B68D3F8B832DB6A04
:1035D000002B0BD07B68D3F8B832DB6A07F10E0200
:1035E0001046984702467B68C3F8CC220023184651
:1035F0001037BD4680BD80B582B000AF7860786876
:10360000FFF700FE034618460837BD4680BD80B46C
:1036100083B000AF7860002318460C37BD465DF8D4
:10362000047B704780B584B000AF78600B46FB70B8
:103630000323FB737B68D3F8B832002B09D07B6877
:10364000D3F8B8321B68FA78114678689847034671
:10365000FB73FB7B18461037BD4680BD80B582B03A
:1036600000AF78600B46FB707B68D3F8B832002B54
:1036700007D07B68D3F8B8325B68FA78114678686F
:103680009847002318460837BD4680BD80B584B0F2
:1036900000AF786039607B6803F2AA233968184666
:1036A00000F090FF7B680122C3F894227B68B3F896
:1036B000B0321A467B68C3F898227B6893F8AA3226
:1036C00003F01F03022B1AD0022B22D8002B02D0AA
:1036D000012B0AD01DE07B6803F2AA231946786803
:1036E00000F062FA0346FB7320E07B6803F2AA2332
:1036F0001946786800F0C6FA0346FB7316E07B684B
:1037000003F2AA231946786800F005FB0346FB7311
:103710000CE07B6893F8AA3223F07F03DBB21946F2
:103720007868FFF7EEFD0346FB7300BFFB7B18468E
:103730001037BD4680BD80B586B000AFF8600B463F
:103740007A60FB72FB7A002B38D1FB6803F5AA7311
:103750003B61FB68D3F89432032B4AD13B699A68EA
:103760003B69DB689A4213D93B699A683B69DB681D
:10377000D21A3B699A603B69DA683B699B6893425D
:1037800028BF13461A467968F86801F002F930E05C
:10379000FB6893F89C32DBB2032B0BD1FB68D3F8A8
:1037A000B8321B69002B05D0FB68D3F8B8321B690F
:1037B000F8689847F86801F0FDF81AE0FB6893F89C
:1037C0009C32DBB2032B14D1FB68D3F8B8329B696F
:1037D000002B0ED0FB68D3F8B8329B69FA7A1146F9
:1037E000F86898470346FB75FB7D002B01D0FB7DF5
:1037F00000E0002318461837BD4680BD80B586B06E
:1038000000AFF8600B467A60FB72FB7A002B6BD13D
:10381000FB6814333B61FB68D3F89432022B56D11A
:103820003B699A683B69DB689A4214D93B699A689C
:103830003B69DB68D21A3B699A603B699B681A4610
:103840007968F86801F094F8002300220021F868F4
:10385000FFF701FE3BE03B69DA683B699B689A42EF
:103860001CD13B695A683B69DB689A4216D33B69B5
:103870005A68FB68D3F898329A420FD2002200218E
:10388000F86801F075F8FB680022C3F8982200235D
:1038900000220021F868FFF7DEFD18E0FB6893F8CE
:1038A0009C32DBB2032B0BD1FB68D3F8B832DB6858
:1038B000002B05D0FB68D3F8B832DB68F86898476E
:1038C0008021F868FFF71DFDF86801F086F8FB68B5
:1038D00093F8A032012B22D1F868FFF798FEFB681D
:1038E000002283F8A0221AE0FB6893F89C32DBB236
:1038F000032B14D1FB68D3F8B8325B69002B0ED0D0
:10390000FB68D3F8B8325B69FA7A1146F8689847D1
:103910000346FB75FB7D002B01D0FB7D00E00023FF
:1039200018461837BD4680BD80B582B000AF7860BC
:103930007B68012283F89C227B680022C3F89422D2
:103940007B6800225A607B680022C3F8A4227B684F
:10395000D3F8B832002B01D103232FE07B68D3F8D2
:10396000BC32002B0FD07B68D3F8B8325B68002BD9
:1039700009D07B68D3F8B8325B687A685268D2B2F3
:103980001146786898474023002200217868FFF7A5
:1039900054FC7B680122A3F864217B684022C3F8B1
:1039A00060214023002280217868FFF746FC7B6875
:1039B00001229A847B6840221A6200231846083745
:1039C000BD4680BD80B483B000AF78600B46FB700D
:1039D0007B68FA781A74002318460C37BD465DF8E8
:1039E000047B704780B483B000AF78607B6893F845
:1039F0009C32DAB27B6883F89D227B68042283F8CC
:103A00009C22002318460C37BD465DF8047B7047A6
:103A100080B483B000AF78607B6893F89C32DBB2EF
:103A2000042B06D17B6893F89D32DAB27B6883F869
:103A30009C22002318460C37BD465DF8047B704776
:103A400080B582B000AF78607B68D3F8B832002BC5
:103A500001D1032312E07B6893F89C32DBB2032B85
:103A60000BD17B68D3F8B832DB69002B05D07B68BB
:103A7000D3F8B832DB6978689847002318460837CE
:103A8000BD4680BD80B582B000AF78600B46FB704C
:103A90007B68D3F8B832002B01D1032314E07B6894
:103AA00093F89C32DBB2032B0DD17B68D3F8B8328C
:103AB0001B6A002B07D07B68D3F8B8321B6AFA78F0
:103AC000114678689847002318460837BD4680BDE0
:103AD00080B582B000AF78600B46FB707B68D3F88E
:103AE000B832002B01D1032314E07B6893F89C3299
:103AF000DBB2032B0DD17B68D3F8B8325B6A002BA5
:103B000007D07B68D3F8B8325B6AFA7811467868D8
:103B10009847002318460837BD4680BD80B483B05F
:103B200000AF7860002318460C37BD465DF8047B73
:103B3000704780B582B000AF78607B68012283F85F
:103B40009C227B68D3F8B832002B09D07B68D3F86D
:103B5000B8325B687A685268D2B211467868984782
:103B6000002318460837BD4680BD80B487B000AF3B
:103B700078607B687B617B691B787B827B69013322
:103B80007B617B691B783B823B8A1B021AB2B7F9C7
:103B9000123013431BB2FB81FB8918461C37BD460C
:103BA0005DF8047B7047000080B584B000AF78609A
:103BB00039600023FB733B681B7803F06003402BE4
:103BC00005D0402B53D8002B0BD0202B4FD17B6836
:103BD000D3F8B8329B683968786898470346FB7316
:103BE0004AE03B685B78092B3BD801A252F823F0EE
:103BF000453C0008593C0008633C00084F3C000865
:103C0000633C0008233C0008193C0008633C0008A2
:103C10003B3C00082D3C00083968786800F0DEF96C
:103C200024E03968786800F043FB1FE03968786861
:103C300000F082FB0346FB7318E03968786800F0F7
:103C400021FC13E03968786800F052FC0EE0396816
:103C5000786800F081FC09E03968786800F090FC31
:103C600004E03968786800F0E7FC00BF04E03968D8
:103C7000786800F0E1FC00BFFB7B18461037BD46BA
:103C800080BD00BF80B584B000AF7860396000238C
:103C9000FB733B681B7803F06003402B05D0402B7F
:103CA0002FD8002B01D0202B2BD17B6893F89C328E
:103CB000DBB2013B022B1DD83B689B88DBB2012B9A
:103CC00013D87B68D3F8B8329B683968786898470E
:103CD0000346FB733B68DB88002B10D1FB7B002B7A
:103CE0000DD1786800F066FE09E03968786800F068
:103CF000A3FC04E03968786800F09EFC00E000BF97
:103D000004E03968786800F097FC00BFFB7B184638
:103D10001037BD4680BD80B584B000AF7860396093
:103D20000023FB733B689B88BB733B681B7803F0E5
:103D30006003402B07D0402B00F24581002B0CD0B4
:103D4000202B40F040817B68D3F8B8329B683968FB
:103D5000786898470346FB733AE13B685B78032B2E
:103D600007D0032B00F32981002B7FD0012B3CD0FF
:103D700023E17B6893F89C32DBB2022B02D0032B49
:103D800016D02CE0BB7B002B0DD0BB7B802B0AD048
:103D9000BB7B19467868FFF7B4FA80217868FFF793
:103DA000B0FA00BF20E03968786800F045FC1BE0FD
:103DB0003B685B88002B0ED1BB7B002B0BD0BB7B01
:103DC000802B08D03B68DB88002B04D1BB7B1946D5
:103DD0007868FFF796FA786800F0ECFD04E039683F
:103DE000786800F029FC00BFECE07B6893F89C3217
:103DF000DBB2022B02D0032B16D030E0BB7B002BB2
:103E00000DD0BB7B802B0AD0BB7B19467868FFF7AF
:103E100078FA80217868FFF774FA00BF25E03968E6
:103E2000786800F009FC20E03B685B88002B1BD120
:103E3000BB7B03F07F03002B04D0BB7B1946786863
:103E4000FFF77EFA786800F0B5FD7B68D3F8B832EA
:103E50009B683968786898470346FB7304E03968C3
:103E6000786800F0E9FB00E000BFABE07B6893F806
:103E70009C32DBB2022B02D0032B32D097E0BB7B0B
:103E8000002B07D0BB7B802B04D03968786800F00A
:103E9000D3FB91E097F90E30002B0BDABB7B03F0DC
:103EA0007F0213469B0013449B0010337A6813442F
:103EB00004330BE0BB7B03F07F0213469B001344EB
:103EC0009B0003F5A8737A6813440433BB60BB6896
:103ED00000221A60BB6802221946786800F02DFDA6
:103EE0006AE097F90E30002B11DABB7B03F00F026A
:103EF000796813469B0013449B000B4424331B88B2
:103F0000002B17D13968786800F096FB54E0BB7B32
:103F100003F00F02796813469B0013449B000B4487
:103F200003F5B2731B88002B04D13968786800F060
:103F300083FB41E097F90E30002B0BDABB7B03F0DB
:103F40007F0213469B0013449B0010337A6813448E
:103F500004330BE0BB7B03F07F0213469B0013444A
:103F60009B0003F5A8737A6813440433BB60BB7BE2
:103F7000002B02D0BB7B802B03D1BB6800221A60D0
:103F80000EE0BB7B19467868FFF7F9F90346002B72
:103F900003D0BB6801221A6002E0BB6800221A60ED
:103FA000BB6802221946786800F0C7FC04E0396853
:103FB000786800F041FB00BF04E03968786800F0E1
:103FC0003BFB00BF04E03968786800F035FB00BFB8
:103FD000FB7B18461037BD4680BD000080B584B01D
:103FE00000AF7860396000233B810023FB60002331
:103FF000FB723B685B881B0A9BB2013B062B00F2FD
:10400000288101A252F823F0254000083D40000815
:104010007D4000085342000853420008F341000865
:104020001F4200087B68D3F8B4321B687A68127CA0
:1040300007F1080110469847F86012E17B681B7C85
:10404000002B0DD17B68D3F8B8329B6A07F10802C8
:1040500010469847F860FB68013302221A7000E1AD
:104060007B68D3F8B832DB6A07F10802104698473C
:10407000F860FB68013302221A70F2E03B685B884B
:10408000DBB2052B00F2AC8001A252F823F000BF96
:10409000A9400008DD400008114100084541000822
:1040A00079410008AD4100087B68D3F8B4325B6801
:1040B000002B0BD07B68D3F8B4325B687A68127C33
:1040C00007F1080110469847F86091E03968786870
:1040D00000F0B2FAFB7A0133FB7289E07B68D3F817
:1040E000B4329B68002B0BD07B68D3F8B4329B684A
:1040F0007A68127C07F1080110469847F86077E06B
:104100003968786800F098FAFB7A0133FB726FE047
:104110007B68D3F8B432DB68002B0BD07B68D3F814
:10412000B432DB687A68127C07F1080110469847C0
:10413000F8605DE03968786800F07EFAFB7A013358
:10414000FB7255E07B68D3F8B4321B69002B0BD0AF
:104150007B68D3F8B4321B697A68127C07F10801D6
:1041600010469847F86043E03968786800F064FAD0
:10417000FB7A0133FB723BE07B68D3F8B4325B69B6
:10418000002B0BD07B68D3F8B4325B697A68127C61
:1041900007F1080110469847F86029E03968786807
:1041A00000F04AFAFB7A0133FB7221E07B68D3F816
:1041B000B4329B69002B0BD07B68D3F8B4329B6977
:1041C0007A68127C07F1080110469847F8600FE002
:1041D0003968786800F030FAFB7A0133FB7207E047
:1041E0003968786800F028FAFB7A0133FB7200BF67
:1041F00037E07B681B7C002B09D17B68D3F8B83291
:104200005B6B07F1080210469847F86029E03968AF
:10421000786800F011FAFB7A0133FB7221E07B68C9
:104220001B7C002B0DD17B68D3F8B8321B6B07F1D8
:10423000080210469847F860FB68013307221A709D
:104240000FE03968786800F0F7F9FB7A0133FB7208
:1042500007E03968786800F0EFF9FB7A0133FB7208
:1042600000BFFB7A002B1ED13B68DB88002B16D0E9
:104270003B89002B0ED03B68DA883B89934228BFEC
:1042800013469BB23B813B891A46F968786800F077
:1042900054FB09E03968786800F0CEF904E07868EA
:1042A00000F088FB00E000BF1037BD4680BD00BFB6
:1042B00080B584B000AF786039603B689B88002B84
:1042C00031D13B68DB88002B2DD13B685B887F2B8D
:1042D00029D83B685B88DBB203F07F03FB737B6804
:1042E00093F89C32DBB2032B04D13968786800F074
:1042F000A3F91DE07B68FA7B83F89E22FB7B1946BD
:104300007868FFF768F8786800F054FBFB7B002BB7
:1043100004D07B68022283F89C2209E07B6801229A
:1043200083F89C2204E03968786800F085F900BFC2
:1043300000BF1037BD4680BD80B584B000AF786047
:1043400039600023FB733B685B88DAB24C4B1A7010
:104350004B4B1B78012B05D93968786800F06CF954
:10436000032388E07B6893F89C32DBB2022B02D0F7
:10437000032B25D071E0424B1B78002B1CD0404B07
:104380001B781A467B685A603D4B1B781946786843
:10439000FFF748F90346FB73FB7B002B04D0396819
:1043A000786800F049F965E0786800F003FB7B6805
:1043B000032283F89C225DE0786800F0FBFA59E064
:1043C0002F4B1B78002B12D17B68022283F89C2292
:1043D0002B4B1B781A467B685A60294B1B78194671
:1043E0007868FFF73BF9786800F0E4FA42E0244B84
:1043F0001B781A467B685B689A422AD07B685B68A8
:10440000DBB219467868FFF729F91D4B1B781A466D
:104410007B685A601A4B1B7819467868FFF702F9D7
:104420000346FB73FB7B002B0FD03968786800F0E4
:1044300003F97B685B68DBB219467868FFF70EF911
:104440007B68022283F89C2214E0786800F0B2FABC
:1044500010E0786800F0AEFA0CE03968786800F097
:10446000EBF8074B1B7819467868FFF7F7F803233A
:10447000FB7300BFFB7B18461037BD4680BD00BFF5
:104480007C05002480B582B000AF786039603B685D
:10449000DB88012B04D03968786800F0CDF823E080
:1044A0007B6893F89C32DBB2022B02DC002B03DC2E
:1044B00015E0032B0BD012E07B6800229A607B682A
:1044C000083301221946786800F037FA0CE07B685F
:1044D000043301221946786800F02FFA04E03968A5
:1044E000786800F0A9F800BF00BF0837BD4680BD5E
:1044F00080B582B000AF786039607B6893F89C32F9
:10450000DBB2013B022B1ED83B68DB88022B04D0B8
:104510003968786800F090F81AE07B680122DA6068
:104520007B68D3F8A432002B05D07B68DB6843F0AE
:1045300002027B68DA607B680C33022219467868D5
:1045400000F0FBF904E03968786800F075F800BF06
:1045500000BF0837BD4680BD80B582B000AF78602F
:1045600039603B685B88012B06D17B680122C3F868
:10457000A422786800F01EFA00BF0837BD4680BD4F
:1045800080B582B000AF786039607B6893F89C3268
:10459000DBB2013B022B0BD83B685B88012B0CD1B3
:1045A0007B680022C3F8A422786800F003FA04E0D4
:1045B0003968786800F040F800E000BF00BF0837B5
:1045C000BD4680BD80B584B000AF786039603B687F
:1045D000FB60FB681A787B681A70FB680133FB602C
:1045E000FB681A787B685A70FB680133FB60F868D7
:1045F000FFF7BBFA03461A467B685A80FB68013313
:10460000FB60FB680133FB60F868FFF7AEFA034616
:104610001A467B689A80FB680133FB60FB680133B4
:10462000FB60F868FFF7A1FA03461A467B68DA8058
:1046300000BF1037BD4680BD80B582B000AF786046
:10464000396080217868FEF75CFE00217868FEF70B
:1046500058FE00BF0837BD4680BD80B586B000AFAC
:10466000F860B9607A600023FB75FB68002B36D0D8
:10467000FB683B61386900F036F8034601339BB2B2
:104680005B009AB27B681A80FB7DBA6813447A6833
:1046900012781A70FB7D0133FB75FB7DBA681344F9
:1046A00003221A70FB7D0133FB7513E0FB7DBA68B2
:1046B00013443A6912781A703B6901333B61FB7D00
:1046C0000133FB75FB7DBA68134400221A70FB7D31
:1046D0000133FB753B691B78002BE7D100E000BF7D
:1046E0001837BD4680BD80B485B000AF7860002328
:1046F000FB737B68BB6005E0FB7B0133FB73BB682E
:104700000133BB60BB681B78002BF5D1FB7B1846DF
:104710001437BD465DF8047B7047000080B483B059
:1047200000AF03463960FB713B6812221A80034BCD
:1047300018460C37BD465DF8047B70473C000024EA
:1047400080B483B000AF03463960FB713B6804223C
:104750001A80034B18460C37BD465DF8047B704742
:104760005000002480B582B000AF03463960FB7171
:10477000FB79002B05D13A6807490848FFF76DFF20
:1047800004E03A6804490548FFF767FF024B184602
:104790000837BD4680BD00BFC0C0002478130308A1
:1047A00080B582B000AF03463960FB713A680449B6
:1047B0000448FFF752FF024B18460837BD4680BD3C
:1047C000C0C000248813030880B582B000AF034640
:1047D0003960FB713B681A221A8000F043F8024BE3
:1047E00018460837BD4680BD5400002480B582B00D
:1047F00000AF03463960FB71FB79002B05D13A68A5
:1048000007490848FFF729FF04E03A6804490548CA
:10481000FFF723FF024B18460837BD4680BD00BF97
:10482000C0C000249413030880B582B000AF0346D3
:104830003960FB71FB79002B05D13A6807490848BC
:10484000FFF70BFF04E03A6804490548FFF705FF4E
:10485000024B18460837BD4680BD00BFC0C00024CB
:10486000A813030880B584B000AF0F4B1B68FB6032
:104870000E4B1B68BB600E4B1B687B60FA687B6845
:104880001344FB60FB68002B09D008220949F86833
:1048900000F014F804220849B86800F00FF800BFCF
:1048A0001037BD4680BD00BF00E8F11F04E8F11FCE
:1048B00008E8F11F560000246600002480B487B089
:1048C00000AFF860B9601346FB710023FB7500234D
:1048D000FB7527E0FB681B0F092B0BD8FB681B0F30
:1048E000DAB2FB7D5B001946BB680B443032D2B2B2
:1048F0001A700AE0FB681B0FDAB2FB7D5B001946F9
:10490000BB680B443732D2B21A70FB681B01FB60E4
:10491000FB7D5B000133BA68134400221A70FB7DF3
:104920000133FB75FA7DFB799A42D3D300BF00BFF8
:104930001C37BD465DF8047B704780B584B000AF7E
:10494000F860B9607A60FB680222C3F89422FB68C1
:104950007A689A61FB687A68DA617B68BA680021D4
:10496000F868FEF757FD002318461037BD4680BD96
:1049700080B584B000AFF860B9607A607B68BA68CF
:104980000021F868FEF746FD002318461037BD46A3
:1049900080BD80B584B000AFF860B9607A607B6894
:1049A000BA680021F868FEF756FD00231846103754
:1049B000BD4680BD80B582B000AF78607B680422C0
:1049C000C3F894220023002200217868FEF722FD1C
:1049D000002318460837BD4680BD80B582B000AFC1
:1049E00078607B680522C3F894220023002200210E
:1049F0007868FEF730FD002318460837BD4680BDB5
:104A000080B584B000AF78600B46FB704FF41D702A
:104A1000FEF756FDF860FB68002B05D17B6800228D
:104A2000C3F8BC22022334E07B68FA68C3F8BC22D6
:104A30007B681B7C002B15D14FF4007302220121EF
:104A40007868FEF7FAFB7B680122A3F878214FF41F
:104A50000073022281217868FEF7EFFB7B68012258
:104A60001A8712E04023022201217868FEF7E5FB55
:104A70007B680122A3F878214023022281217868F3
:104A8000FEF7DBFB7B6801221A87786800F099F952
:104A9000002318461037BD4680BD80B582B000AFF8
:104AA00078600B46FB7001217868FEF7ECFB7B68B1
:104AB0000022A3F8782181217868FEF7E4FB7B6867
:104AC00000221A877B68D3F8BC32002B0CD07868A0
:104AD00000F0D5F97B68D3F8BC321846FEF7FEFC2F
:104AE0007B680022C3F8BC22002318460837BD4665
:104AF00080BD000080B586B000AF786039607B680B
:104B0000D3F8BC323B610023FB750023FB813B697A
:104B1000002B01D10323DBE03B681B7803F060032B
:104B2000002B4ED0202B40F0CB803B685B78FE2BD7
:104B300002D0FF2B25D03CE03B685B88002B19D1CD
:104B40003B68DB88012B15D13B681B785BB2002BDF
:104B500010DA7B68D3F8C0329B69984703461A463F
:104B60003B691A603B69012219467868FFF7E5FE48
:104B700000BF25E039687868FFF75EFD0323FB7509
:104B80001EE03B685B88002B0CD13B68DB88002B68
:104B900008D13B681B785BB2002B03DB786800F020
:104BA00048F90DE039687868FFF746FD0323FB7587
:104BB00006E039687868FFF73FFD0323FB7500BF07
:104BC00085E03B685B780B2B71D801A252F823F08B
:104BD000014C00087D4C0008AF4C0008AF4C0008A9
:104BE000AF4C0008AF4C0008AF4C0008AF4C0008B9
:104BF000AF4C0008AF4C00082B4C0008554C000887
:104C00007B6893F89C32DBB2032B07D107F10E03CC
:104C1000022219467868FFF790FE50E039687868FC
:104C2000FFF70AFD0323FB7549E07B6893F89C328C
:104C3000DBB2032B07D13B690433012219467868A4
:104C4000FFF77BFE3BE039687868FFF7F5FC03234C
:104C5000FB7534E07B6893F89C32DBB2032B06D102
:104C60003B685B88DBB21A463B695A6027E03968CB
:104C70007868FFF7E1FC0323FB7520E07B6893F87D
:104C80009C32DBB2032B19D13B685B88002B15D11A
:104C90003B689B88DBB219467868FEF713FB3B68DC
:104CA0009B88DBB21946786800F082FA06E0396822
:104CB0007868FFF7C1FC0323FB7500E000BF06E046
:104CC00039687868FFF7B8FC0323FB7500BFFB7DEC
:104CD00018461837BD4680BD80B582B000AF7860F9
:104CE0000B46FB70FB781946786800F0DCF800236F
:104CF00018460837BD4680BD80B582B000AF7860E9
:104D00000B46FB70FB781946786800F002F9002327
:104D100018460837BD4680BD80B483B000AF7860C8
:104D20007B6820221A80034B18460C37BD465DF87D
:104D3000047B7047A800002480B483B000AF786083
:104D40007B6820221A80034B18460C37BD465DF85D
:104D5000047B7047C800002480B483B000AF786043
:104D60007B6820221A80034B18460C37BD465DF83D
:104D7000047B7047E800002480B483B000AF786003
:104D80007B680A221A80034B18460C37BD465DF833
:104D9000047B70470801002480B483B000AF7860C2
:104DA00039603B68002B01D1032304E07B683A683B
:104DB000C3F8C022002318460C37BD465DF8047BBB
:104DC000704780B584B000AF78607B68D3F8BC32A0
:104DD000FB60FB68002B28D0FB6800221A72FB687E
:104DE00000225A72FB68002283F86122FB680022CD
:104DF00083F86022FB68002283F862227B68D3F884
:104E0000C0321B680020984701217868FEF75AFAE3
:104E100081217868FEF756FAFB6803F504721F23B8
:104E200001217868FEF717FB00E000BF1037BD4690
:104E300080BD80B584B000AF78607B68D3F8BC32A9
:104E4000FB60FB68002B16D0FB6800221A72FB681F
:104E500001225A7281217868FEF772FA012178687E
:104E6000FEF76EFAFB6803F504721F2301217868D0
:104E7000FEF7F1FA00E000BF1037BD4680BD80B4F8
:104E800085B000AF78607B68D3F8BC32FB60FB680C
:104E9000002B02D0FB6800221A7200BF1437BD46F7
:104EA0005DF8047B704780B584B000AF78600B4636
:104EB000FB707B68D3F8BC32FB60FB68002B20D012
:104EC000FB681B7A022B05D0022B1CDB033B012B5A
:104ED00019D811E0FB6893F81D12FB6803F21F2339
:104EE0001A46786800F092F90346002B0DDA01218A
:104EF000786800F0FBF808E00021786800F0F6F828
:104F000004E000BF02E000BF00E000BF1037BD4674
:104F100080BD80B584B000AF78600B46FB707B68C5
:104F2000D3F8BC32FB60FB68002B1CD0FB681B7AFB
:104F3000002B02D0012B04D018E0786800F01AF89A
:104F400014E0FB6893F81D12FB6803F21F231A4656
:104F5000786800F05BF90346002B06DA01217868D7
:104F600000F0C4F801E000BF00E000BF1037BD460C
:104F700080BD000080B584B000AF78607B68D3F856
:104F8000BC32FB60FB68002B77D0FB68D3F814229F
:104F9000FB68C3F83422FB68D3F81822FB68C3F817
:104FA000382201217868FEF777FA03461F2B14D1C7
:104FB000FB68D3F81032344A93420ED1FB6893F861
:104FC0001D32012B09D8FB6893F81E32002B04D048
:104FD000FB6893F81E32102B0ED9FB6893F81D1254
:104FE00020230522786800F0BCFDFB6802225A727B
:104FF000786800F0ABF843E0FB6893F81D12FB689B
:1050000003F21F231A46786800F000F90346002BCC
:105010000CDAFB681B7A052B04D10121786800F0BB
:1050200065F82DE0786800F091F829E0FB681B7ABC
:10503000022B24D0FB681B7A012B20D0FB681B7A43
:10504000032B1CD0FB68DB68002B09D0FB6803F145
:105050001001FB68DB681A46786800F017F80FE06B
:10506000FB68DB68002B04D10021786800F03EF873
:1050700006E0786800F06AF802E000BF00E000BFD8
:105080001037BD4680BD00BF5553424380B586B042
:1050900000AFF860B9607A60FB68D3F8BC327B611E
:1050A0007B69D3F818327A68934228BF13463B6174
:1050B0007B69002B15D07B69D3F838227B68D21A24
:1050C0007B69C3F838227B69002283F83C227B6924
:1050D00004221A723B69BA688121F868FEF79AF9CE
:1050E00000E000BF1837BD4680BD000080B584B029
:1050F00000AF78600B46FB707B68D3F8BC32FB6076
:10510000FB68002B1BD0FB680F4AC3F83022FB68FA
:10511000FA7883F83C22FB6800221A72FB6803F5D8
:105120000C720D2381217868FEF774F9FB6803F592
:1051300004721F2301217868FEF78DF900E000BF9B
:105140001037BD4680BD00BF5553425380B584B073
:1051500000AF78607B68D3F8BC32FB60FB68002B43
:1051600022D0FB6893F81C32002B0CD1FB68D3F8DB
:105170001832002B07D0FB685B7A002B03D101218A
:105180007868FEF7BEF881217868FEF7BAF8FB6808
:105190005B7A022B09D181217868FEF7B2F80121F0
:1051A0007868FEF7AEF800E000BF1037BD4680BD5E
:1051B00080B584B000AF78600B46FB707B68D3F895
:1051C000BC32FB60FB68002B19D0FB685B7A022BBA
:1051D00008D181217868FEF794F801217868FEF7FC
:1051E00090F80FE097F90330002B0ADAFB685B7A3E
:1051F000012B06D001217868FFF778FF02E000BF9D
:1052000000E000BF1037BD4680BD000080B586B00D
:1052100000AFF8600B467A60FB72FB68D3F8BC32D3
:105220003B613B69002B02D14FF0FF3368E17B68A3
:105230001B78AA2B00F04481AA2B00F35381A82BE2
:1052400000F02C81A82B00F34D815A2B00F3C08075
:10525000002BC0F247815A2B00F2448101A252F880
:1052600023F000BFD7530008E5540008E5540008B8
:10527000E9530008E5540008E5540008E554000827
:10528000E5540008E5540008E5540008E55400081A
:10529000E5540008E5540008E5540008E55400080A
:1052A000E5540008E5540008E5540008FB530008E5
:1052B000E5540008E5540008E5540008E5540008EA
:1052C000E5540008E5540008E5540008315400088E
:1052D0000D540008E5540008E55400081F54000868
:1052E000E5540008E5540008E5540008E5540008BA
:1052F00055540008E554000867540008E5540008B8
:10530000E55400088B540008E5540008AF54000829
:10531000E5540008E5540008E5540008E554000889
:10532000D3540008E5540008E5540008E55400088B
:10533000E5540008E5540008E5540008E554000869
:10534000E5540008E5540008E5540008E554000859
:10535000E5540008E5540008E5540008E554000849
:10536000E5540008E5540008E5540008E554000839
:10537000E5540008E5540008E5540008E554000829
:10538000E5540008E5540008E5540008E554000819
:10539000E5540008E5540008E5540008E554000809
:1053A000E5540008E5540008E5540008E5540008F9
:1053B000E5540008E5540008E5540008E5540008E9
:1053C000E5540008E5540008E5540008435400087B
:1053D0009E2B51D086E0FB7A7A681946F86800F077
:1053E00093F80346FB7589E0FB7A7A681946F868FA
:1053F00000F038FB0346FB7580E0FB7A7A681946BB
:10540000F86800F0D1F80346FB7577E0FB7A7A681C
:105410001946F86800F0ECFB0346FB756EE0FB7A7A
:105420007A681946F86800F034FC0346FB7565E0BD
:10543000FB7A7A681946F86800F0BCFA0346FB75F7
:105440005CE0FB7A7A681946F86800F0DFFA0346F8
:10545000FB7553E0FB7A7A681946F86800F037FA72
:105460000346FB754AE0FB7A7A681946F86800F053
:105470000FF90346FB7541E0FB7A7A681946F86834
:1054800000F07BF90346FB7538E0FB7A7A68194631
:10549000F86800F027FC0346FB752FE0FB7A7A687A
:1054A0001946F86800F0BEFC0346FB7526E0FB7A5F
:1054B0007A681946F86800F060FD0346FB751DE048
:1054C000FB7A7A681946F86800F01CFE0346FB7503
:1054D00014E0FB7A7A681946F86800F0E8FE0346A3
:1054E000FB750BE0F97A20230522F86800F039FB00
:1054F0003B6902225A72FF23FB7500BF97F91730F0
:1055000018461837BD4680BD80B586B000AFF8603C
:105510000B467A60FB72FB68D3F8BC327B617B6917
:10552000002B02D14FF0FF333AE07B69D3F81832F9
:10553000002B0AD07B6993F81D1220230522F868FE
:1055400000F00FFB4FF0FF332AE07B6993F86232E3
:10555000022B0BD1F97A3A230222F86800F001FB02
:105560007B6905221A724FF0FF3319E0FB68D3F80C
:10557000C0329B68FA7A104698470346002B0BD03E
:10558000F97A3A230222F86800F0EBFA7B690522E7
:105590001A724FF0FF3303E07B690022DA600023C8
:1055A00018461837BD4680BD80B588B000AFF8609A
:1055B0000B467A60FB72FB68D3F8BC32BB61BB69F7
:1055C000002B02D14FF0FF335AE0BB69D3F81832F9
:1055D000002B0AD1BB6993F81D1220230522F8681D
:1055E00000F0BFFA4FF0FF334AE07B6801331B78CD
:1055F00003F00103002B20D07B6802331B78002BC3
:1056000005D106222049B86900F0B4FF37E07B6875
:1056100002331B78802B05D108221C49B86900F0A1
:10562000A9FF2CE0BB6993F81D1224230522F8681A
:1056300000F097FA4FF0FF3322E0FB68D3F8C03256
:10564000D969FA7A1346DB0013449B000B447B6153
:105650007B6904331B789BB20533FB837B6804337F
:105660001B789BB2FA8B9A4203D37B6804331B7876
:10567000FB83FB8B1A467969B86900F07BFF002336
:1056800018462037BD4680BD140100241C010024AB
:1056900080B586B000AFF8600B467A60FB72FB689D
:1056A000D3F8BC327B617B69002B02D14FF0FF3312
:1056B0005FE0FB68D3F8C0325B687A6902F51A7163
:1056C0007A6902F51972F87A98470346FB7497F9DC
:1056D0001330002B04D17B6993F86232022B08D17E
:1056E000F97A3A230222F86800F03BFA4FF0FF33D0
:1056F0003FE07B69D3F86832013B1B0EDAB27B696D
:105700001A747B69D3F86832013B1B0CDAB27B69EF
:105710005A747B69D3F86832013B1B0ADAB27B69A1
:105720009A747B69D3F86832DBB2013BDAB27B69E9
:10573000DA747B69B3F864321B16DAB27B691A75C6
:105740007B69B3F864321B14DAB27B695A757B69E2
:10575000B3F864321B0A9BB2DAB27B699A757B6933
:10576000B3F86432DAB27B69DA757B690822DA60F1
:10577000002318461837BD4680BD80B588B000AFFD
:10578000F8600B467A60FB72FB68D3F8BC32BB61F1
:10579000BB69002B02D14FF0FF3394E0FB68D3F8D4
:1057A000C0325B68BA6902F51A71BA6902F51972FA
:1057B000F87A98470346FB7597F91730002B04D108
:1057C000BB6993F86232022B08D1F97A3A2302229C
:1057D000F86800F0C6F94FF0FF3374E07B680A33D5
:1057E0001B781A067B680B331B781B041A437B68F3
:1057F0000C331B781B0213437A680D3212781A435C
:10580000BB69DA600023FB7707E0FB7FBA691344CA
:1058100000221A74FB7F0133FB77FA7FBB69DB68D8
:105820009A42F2D3BB69D3F86832013B1B0EDAB25D
:10583000BB691A75BB69D3F86832013B1B0CDAB23D
:10584000BB695A75BB69D3F86832013B1B0ADAB2EF
:10585000BB699A75BB69D3F86832DBB2013BDAB237
:10586000BB69DA75BB69B3F864321B16DAB2BB697F
:105870001A76BB69B3F864321B14DAB2BB695A7684
:10588000BB69B3F864321B0A9BB2DAB2BB699A7681
:10589000BB69B3F86432DAB2BB69DA767B680A3383
:1058A0001B781A067B680B331B781B041A437B6832
:1058B0000C331B781B0213437A680D3212781A439B
:1058C000BB69DA60002318462037BD4680BD80B52D
:1058D00088B000AFF8600B467A60FB72FB68D3F8C3
:1058E000BC32BB61BB69002B02D14FF0FF335CE0DF
:1058F000FB68D3F8C0325B6807F1140207F11001AE
:10590000F87A98470346FB7597F91730002B04D1B6
:10591000BB6993F86232022B08D1F97A3A2302224A
:10592000F86800F01EF94FF0FF333EE00023FB83E0
:1059300007E0FB8BBA69134400221A74FB8B013316
:10594000FB83FB8B0B2BF4D9BB690822DA743B6910
:10595000013B1B0EDAB2BB691A753B69013B1B0C9C
:10596000DAB2BB695A753B69013B1B0ADAB2BB6903
:105970009A753B69DBB2013BDAB2BB69DA75BB6988
:1059800002221A76BB8A1B14DAB2BB695A76BB8A2A
:105990001B0A9BB2DAB2BB699A76BB8ADAB2BB69E0
:1059A000DA76BB690C22DA60002318462037BD4640
:1059B00080BD000080B586B000AFF8600B467A600D
:1059C000FB72FB68D3F8BC323B611723FB823B6957
:1059D000002B02D14FF0FF3311E07B6804331B78BA
:1059E0009BB2FA8A9A4203D37B6804331B78FB820A
:1059F000FB8A1A460449386900F0BCFD00231846AA
:105A00001837BD4680BD00BF2401002480B586B094
:105A100000AFF8600B467A60FB72FB68D3F8BC32CB
:105A20003B611B23FB823B69002B02D14FF0FF330C
:105A300011E07B6808331B789BB2FA8A9A4203D341
:105A40007B6808331B78FB82FB8A1A460449386955
:105A500000F090FD002318461837BD4680BD00BFFA
:105A60003C01002480B586B000AFF8600B467A6038
:105A7000FB72FB68D3F8BC323B613B69002B02D15F
:105A80004FF0FF3369E03B69D3F81832002B0AD19D
:105A90003B6993F81D1220230522F86800F061F895
:105AA0004FF0FF3359E00023FB7507E0FB7D3A69B7
:105AB000134400221A74FB7D0133FB75FB7D112B0F
:105AC000F4D93B6970221A743B690C22DA753B6980
:105AD00093F860223B6993F861329A422ED03B6979
